:100000000C9463020C94AA020C94AA020C94AA0207
:100010000C94AA020C94AA020C94AA020C94AA02B0
:100020000C94AA020C94AA020C94281A0C94E419B9
:100030000C948E1F0C94AA020C94AA020C94AA028F
:100040000C94AA020C94AA020C94AA020C94AA0280
:100050000C94AA020C946A1F0C94AA020C94AA0293
:100060000C94AA020C94AA020C94AA020C94AA0260
:100070000C94AA020C94AA020C94AA020C94AA0250
:100080000C94AA020C94AA020C94AA020C94AA0240
:100090000C94AA020C94AA020C94AA020C94AA0230
:1000A0000C94AA020C94AA020C94AA02050109025B
:1000B000A10185020901A100050919012905150001
:1000C00025019505750181029501750381010501E1
:1000D000093009311581257F950275088106093897
:1000E0001581257F950175088106050C0A380215D2
:1000F00081257F950175088106C0C005010980A191
:1001000001850319012AB700150126B7009501756D
:10011000108100C0050C0901A101850419012AA064
:1001200002150126A002950175108100C005010984
:1001300006A1018505050719E029E71500250195A8
:1001400008750181020507190029EF1500250195A1
:10015000F0750181020508190129059505750191C0
:1001600002950175039101C00660FF0961A10109B3
:1001700062150026FF0095207508810209631500AD
:1001800026FF00952075089102C005010906A1010E
:10019000050719E029E71500250195087501810279
:1001A0009501750881010507190029FF150026FF33
:1001B0000095067508810005081901290595057542
:1001C000019102950175039101C014001A00080005
:1001D000150017001C0018000C001200130000008E
:1001E00004001600070009000A000B000D000E00B5
:1001F0000F002D4300001D001B0006001900050024
:1002000011001000360037003800E500E000E30080
:10021000E200E1002A422C4128444C00E600E400C0
:1002200029001E001F0020002100220023002400BE
:1002300025002600270000002B00000000003500EC
:100240002F0030003100330034002D00000000008A
:100250000000000000002E002D0000000100010041
:100260000100010001000100010001000100000087
:10027000010001000100010001003A003B003C00C8
:100280003D003E003F0040004100420043000000AE
:100290002B004400450000000000000000000000AA
:1002A0000000000000003900460047004800000040
:1002B00053000000AA00A900A800010001000100ED
:1002C000010001000100010000000000000000002A
:1002D00001002900000000000000000049004B0060
:1002E00052004E004C0000002B00000000000000F7
:1002F00000004A00500051004F00000000000000C4
:1003000000000000000000004D00000000000000A0
:100310000000010001000100010001002A000000AE
:1003200000000000000000000100290000000000A3
:10033000000000000000F400F000F5004C00000098
:100340002B000000000000000000F900F200F100A6
:10035000F3000000000000000000000000000000AA
:10036000FA00000000000000000001000100010090
:10037000010001002A000000000000000000000051
:10038000010000000000000000000000000000006C
:100390000000000000007E0F00D4FFFFFFC7000038
:1003A000007800000000000000002A2B2800000058
:1003B0000000000000000000000000000029000014
:1003C00000002C1E3420212224342627252E362DF1
:1003D0003738271E1F202122232425263333362E8B
:1003E00037381F0405060708090A0B0C0D0E0F10FD
:1003F0001112131415161718191A1B1C1D2F313042
:10040000232D350405060708090A0B0C0D0E0F10E5
:100410001112131415161718191A1B1C1D2F313021
:10042000354C09025B00030100A0FA090400000139
:10043000030101000921110100012240000705818B
:100440000308000A09040100020300000009211149
:100450000100012222000705820320000107050395
:10046000032000010904020001030000000921111A
:1004700001000122BC000705840320000A120110BC
:1004800001000000086666706601000102030104B5
:1004900003300000001A0350003400320020004BEB
:1004A000006500790062006F006100720064000066
:1004B000000E0350006100620069006C00650000DE
:1004C00000040309040011241FBECFEFDAE0DEBFF1
:1004D000CDBF04B603FE27C080914F029091500219
:1004E000A0915102B09152028730904BA740B04B7F
:1004F000D1F410924F0210925002109251021092B9
:10050000520214BE84B7877F84BF0FB6F894A895B3
:1005100080916000886180936000109260000FBE3F
:10052000E0E0F8E3099511E0A0E0B1E0EAECF0E4E6
:1005300002C005900D92AA35B107D9F722E0AAE5CD
:10054000B1E001C01D92AF34B207E1F70E94031B76
:100550000C942C200C940000E8EDF0E080818E7F5C
:1005600080831092E2001092DA001092E100A0EE77
:10057000B0E08C9181608C9380818F77808319BCEF
:10058000A7EDB0E08C918E7F8C9380818F7E8083ED
:1005900010921C0208952091E4003091E50095E648
:1005A000A9012091EC00822F817020FF06C080916C
:1005B000E80080FF06C080E008952091E80022FD59
:1005C0001AC080914A02882389F0853089F0809191
:1005D000EB0085FD0FC02091E4003091E50042174B
:1005E0005307F9F29150E1F684E0089582E008950E
:1005F00083E0089581E00895EF92FF920F931F9397
:10060000CF937C018B010E94CB02C82F811117C0B0
:100610008091E80085FD0BC08091E8008E77809383
:10062000E8000E94CB02882399F3C82F08C0F70185
:1006300081917F018093F1000150110949F78C2FBE
:10064000CF911F910F91FF90EF900895CF93FC01F0
:1006500080914A02843001F5C091E900CF70209169
:10066000EC00922F917020FD90E8C92B82E08093DE
:10067000E9008091E80080FF0CC050E040E060E2BB
:1006800070E0CF010E94FC028091E8008E77809399
:10069000E800CF70C093E900CF91089580914202A5
:1006A00087FF13C08091E80082FF06C08091E800B8
:1006B0008B778093E80004C080914A028111F2CFC9
:1006C000089580914A028823D9F38091E80080FF41
:1006D000F8CF8091E8008E77ECCF982F9093E900C7
:1006E000242F762F50E0891731F07091EC00209183
:1006F000ED005091F00021FD07C09F5F973071F72A
:100700008093E90081E008953091EB003E7F3093C3
:10071000EB003091ED003D7F3093ED003091EB0028
:1007200031603093EB007093EC002093ED00509318
:10073000F0002091EE0027FDE0CF80E00895CF92F9
:10074000DF92EF92FF920F931F93CF93DF93C8ED49
:10075000D0E088818F7E8883E7EDF0E08081816042
:10076000808384E082BF81E080931C0288818E7F39
:10077000888302EE10E0F80110821092DA0081EE18
:10078000C82ED12CF601108288818F7788838881CA
:100790008068888388818F7D888319BC10924A0283
:1007A000109241021092400210923F0290EEE92E08
:1007B000F12CF70180818B7F808388818160888321
:1007C00042E060E080E00E946D03F60180818E7F50
:1007D0008083F8018081816080838081886080834C
:1007E000F70180818E7F8083888180618883DF919B
:1007F000CF911F910F91FF90EF90DF90CF900895D0
:10080000FC01809148029091490286179707A0F059
:100810006115710529F49091E8009E779093E800A6
:1008200090E06115710551F4911108C08091E800C4
:1008300082FF34C080E00895BC01F2CF80914A026B
:100840008823C1F18530C1F18091E80083FD30C07B
:100850008091E80082FDEACF8091E80080FFE1CF3F
:100860008091F3002091F200382F6115710519F085
:100870002830310558F091E02830310509F090E03A
:100880002091E8002E772093E800CBCF81918093D0
:10089000F100615071092F5F3F4FE7CF80914A020D
:1008A000882341F0853041F08091E80083FFBECF7E
:1008B00081E0089582E0089583E0089580914A02DE
:1008C000843011F482E0089581E0089580911E0241
:1008D000089590910202803F41F48091030287FDC8
:1008E00010920302992371F00895813F29F48091B9
:1008F00003021816ACF3F6CF823F81F497FFF2CFD4
:10090000109202028091030290910402892B90912F
:100910000502892B49F71092FD010895833F19F4D0
:10092000191674F3DFCF893F39F480910402181649
:10093000CCF610920402D6CF8A3F29F480910402AB
:1009400087FFD0CFF6CF8B3F39F48091050287FF28
:10095000C9CF10920502C6CF8C3F29F480910502C1
:100960001816BCF3BFCF843F31F4809101028E7F13
:1009700080930102B7CF853F21F4809101028D7FE2
:10098000F7CF863F21F4809101028B7FF1CF873F23
:1009900021F480910102877FEBCF883F21F4809181
:1009A00001028F7EE5CF8D3F31F48091E7018E7F8C
:1009B0008093E70197CF8E3F21F48091E7018D7FEF
:1009C000F7CF8F3F09F08ECF8091E7018B7FF0CF7B
:1009D0008091E70180FD16C081FD16C082FD16C022
:1009E0008091FD018823A1F0883280F428E0829F65
:1009F000C001112468E270E00E94B51F862F672BAA
:100A000039F0089582E0089584E0089588E008951B
:100A100081E008958091E70180FD14C081FD14C03C
:100A200082FD16C08091FD01882381F0843180F41D
:100A300022E3829FC001112464E170E00E94B51F8F
:100A4000862F08958CE0089589E1089585E0089542
:100A500082E30895803F31F40E940A0581958093D6
:100A600003020895813F19F40E940A05F8CF823FDE
:100A700031F40E940A058195809302020895833F14
:100A800019F40E940A05F8CF893F29F40E94E8046E
:100A90008093040208958A3F21F40E94E80481951E
:100AA000F7CF8B3F31F40E94E804819580930502D3
:100AB00008958C3F19F40E94E804F8CF843F31F484
:100AC000809101028160809301020895853F21F4A5
:100AD000809101028260F7CF863F21F4809101026C
:100AE0008460F1CF873F21F4809101028860EBCFD1
:100AF000883F21F4809101028061E5CF8D3F31F480
:100B00008091E70181608093E70108958E3F21F491
:100B10008091E7018260F7CF8F3FB9F78091E701BD
:100B20008460F1CF87E797E79093010880930008EE
:100B300088E19AE00FB6F894A895809360000FBE04
:100B400090936000FFCF9C014FB7F89480911802FA
:100B500090911902A0911A02B0911B024FBF821B03
:100B6000930B08952FB7F894809118029091190271
:100B7000A0911A02B0911B022FBF0895E091F601D7
:100B8000F091F701309749F082E0809300020480F1
:100B9000F581E02D80E092E009950E94B2059093E6
:100BA000FC018093FB01089520910A012223C9F0E2
:100BB0002091F40127FF15C0E62FE695E695E6950E
:100BC000EE31D8F4E80FF92FF11D677021E030E025
:100BD00001C0220F6A95EAF720958281282322839B
:100BE0000895FC01329608962191621303C0DF013B
:100BF00011971C92E817F907B9F7089520910A0197
:100C00002223C1F02091F40127FF14C0E62FE695BE
:100C1000E695E695EE31F8F4E80FF92FF11D6770CF
:100C200021E030E001C0220F6A95EAF78281822B31
:100C300082830895FC0132962FEF30E041916417D2
:100C400051F02F3F19F4411101C0232F3F5F36307F
:100C5000A9F72F3F09F40895820F911D27FD9A955A
:100C6000FC01628308958091E20181111092E201FA
:100C700008958091E1019091E001892B9091DF012D
:100C8000892B80935A019091E2019923A1F0892B3D
:100C900080935A0180910A01882341F18091F401E7
:100CA00087FF24C08EE1ECE5F1E090E0815000F593
:100CB00091110E943306E091F601F091F70130970F
:100CC000E1F080910A01882359F08091F40187FFB7
:100CD00007C080915A0180935B0185E080935A019F
:100CE0000280F381E02D8AE591E0099486E0DBCF74
:100CF00021912223D9F29F5FD9CF08952BE0929FB3
:100D0000800D1124982F977086958695869525E0FD
:100D1000829FF0011124E054FE4F50E040E080E05B
:100D2000219130E0092E02C0369527950A94E2F70A
:100D300021703327042E01C0220F0A94EAF7822B78
:100D40004F5F5F4F4530510559F708952BE0929F53
:100D5000800D1124982F977041E001C0440F9A959F
:100D6000EAF786958695869595E0899FF00111248E
:100D7000E054FE4F90E080E070E05191DF01119768
:100D80009B01082E02C0369527950A94E2F7217040
:100D900021952527242325272C930196853091051D
:100DA00061F708958091BF0190918E01981301C061
:100DB00008958F5F8770FACF882341F080959091D6
:100DC000E00189238093E0010C943906089588237B
:100DD00039F09091E001982B9093E0010C94390642
:100DE0000895882341F080959091E10189238093B3
:100DF000E1010C9439060895882339F09091E101BE
:100E0000982B9093E1010C9439060895209181016B
:100E1000309182012817390771F0909382018093F5
:100E20008101E091F601F091F701309721F0008403
:100E3000F185E02D0994089520917F013091800182
:100E40002817390771F09093800180937F01E0911A
:100E5000F601F091F701309721F00680F781E02D3F
:100E6000099408951092E0011092DF010E94390662
:100E700086E0E0E0F2E0DF011D928A95E9F710924A
:100E8000FD011092E7010E94BE0590E080E00E9403
:100E90001C0790E080E00C94060760934B0270936F
:100EA0004C0280934D0290934E020C9432070F93A4
:100EB0001F9360914B0270914C0280914D02909172
:100EC0004E028B019C010670112722273327063022
:100ED00011052105310529F468601F910F910C94CB
:100EE0004D07677FFACF0F931F9341E050E060E01A
:100EF00070E004C0440F551F661F771F8A95D2F714
:100F0000CB01BA01609570958095909500914B0248
:100F100010914C0220914D0230914E0260237123BA
:100F2000822393231F910F910C944D079091DE0122
:100F3000809589238093DE01282F277071F4282F54
:100F4000082E000C330B9217130639F08595859502
:100F500085950E9473071092DE0108950F931F93E9
:100F600041E050E060E070E004C0440F551F661F90
:100F7000771F8A95D2F780914B0290914C02A091F5
:100F80004D02B0914E028A019B01082B192B2A2B8E
:100F90003B2BC901B8011F910F910C944D07609331
:100FA000E3017093E4018093E5019093E6010C94D2
:100FB00032078823B1F19CEF980F913A38F4682FEB
:100FC0008AE591E00E94D4050C94390690E2980FCE
:100FD000983088F4877021E030E0A90102C0440F06
:100FE000551F8A95E2F7CA0180959091E101892306
:100FF0008093E101E9CF9BE5980F933020F490E0D6
:1010000080E00C941C0798E5980F973120F490E04D
:1010100080E00C940607803F20F00E9469040C9445
:10102000BE050895CF93C82F882309F46EC08CEFB6
:101030008C0F813AB8F580910A01882311F18091D3
:10104000F40187FF1EC0EC2FE695E695E695F0E0EB
:10105000E65AFE4F828190E04C2F477021E030E04D
:1010600002C0220F331F4A95E2F782239323892B74
:1010700089F06C2F8AE591E00E94D4050E94390620
:1010800009C0ECE5F1E08191C81799F381E0E236FF
:10109000F807C9F76C2F8AE591E00E94FE05CF9111
:1010A0000C94390680E28C0F883068F4C77021E018
:1010B00030E001C0220FCA95EAF78091E101822B4E
:1010C0008093E101ECCFEBE5EC0FE33040F4F0E08E
:1010D000E55FFE4F808190E0CF910C941C07E8E51E
:1010E000EC0FE73150F4F0E0EE0FFF1FE25FFE4F30
:1010F00080819181CF910C940607C03F30F08C2FF6
:101100000E942A05CF910C94BE05CF910895E091DD
:10111000F601F091F701309721F00190F081E02D78
:10112000099480E008959091F40192FF06C0282F61
:1011300028712830F9F4877F846093FF06C0282F38
:1011400028712831F1F4877E84612091F50120FF18
:1011500006C0382F38713830D9F4877F816021FF7D
:1011600006C0282F28712831D1F4877E816194FD33
:10117000877E0895282F24712430F9F68B7F8860AC
:10118000DCCF282F2471243101F78B7E8861DDCFDD
:10119000382F3171313019F78E7F8860E0CF282FDA
:1011A0002171213121F78E7E8861E1CFCF93DF93CA
:1011B00000D00F92CDB7DEB790914A02943011F56E
:1011C00089837B836A839093E9008FEF9091E80095
:1011D000815095FD06C095ED9A95F1F700008111BB
:1011E000F5CF8091E80085FF0DC050E040E063E05E
:1011F00070E0CE0101960E94FC028091E8008E779B
:101200008093E8000F900F900F90DF91CF91089599
:10121000CF93DF93EC010E945E04823011F08430A2
:1012200031F4BE0184E0DF91CF910C94D608DF91B8
:10123000CF910895BC0183E00C94D608CF93DF933F
:10124000EC010E945E04823011F08430F9F484E0F5
:101250008093E9008FEF9091E800815095FD06C0E2
:1012600095ED9A95F1F700008111F5CF8091E80096
:1012700085FF0CC050E040E066E070E0CE010E94C7
:10128000FC028091E8008E778093E800DF91CF9197
:101290000895CF93DF93EC010E945E04823011F039
:1012A0008430B9F580910A018823B1F18091F4016D
:1012B00087FF32C060E284E08093E9008FEF909175
:1012C000E800815095FD06C095ED9A95F1F7000074
:1012D0008111F5CF8091E80085FF1BC080910A0144
:1012E00070E050E040E0811104C050E040E068E070
:1012F00070E0CE010E94FC028091E8008E7780931E
:10130000E80080E2FE01AFE1B2E001900D928A9523
:10131000E1F7DF91CF91089568E081E0CDCFCF93E1
:10132000C82F0E941208C93349F42FEF87EE93E0CB
:10133000215080409040E1F700C000008C2FCF91F9
:101340000C94D9070F931F93CF93DF93C62FD42FFD
:10135000022FFC0182818823A1F0609384010E9406
:10136000B20590937E0180937D01C77081E001C03A
:10137000880FCA95EAF7DF91CF911F910F910C94D6
:10138000FC0610918401161335C080917D01909167
:101390007E010E94A305883C910560F5C0E2CD0F57
:1013A0001D17B9F080E2810F883040F4177081E09A
:1013B00001C0880F1A95EAF70E94F106C83048F478
:1013C00081E09D2F977001C0880F9A95EAF70E94DF
:1013D000FC06802F0E948F09C83098F4D77081E0F6
:1013E00001C0880FDA95EAF7DF91CF911F910F9135
:1013F0000C94F106C77081E001C0880FCA95EAF726
:10140000F3CFDF91CF911F910F9108957F928F922B
:101410009F92AF92BF92CF92DF92EF92FF920F9383
:101420001F93CF93DF930CE311E0ACEEB1E0712C8E
:10143000CC24C394D12CE80189918E01E82FE29548
:10144000EF70F0E091A18F70760101C0EE0C8A95EB
:10145000EAF7892F8E2981A392A17E2D709597237B
:1014600092A3D0EADA95F1F790E4A92E91E0B92E93
:1014700050E040E030E020E0E50169915E01862E19
:1014800082948FE08822912CE40188A190E06F7013
:1014900002C0959587956A95E2F780FD5CC0C6010C
:1014A000042E02C0880F991F0A94E2F7282B392BCB
:1014B0004F5F5F4F4B305105F9F681A1872381A320
:1014C00082A1E82AE2A28D919C91119728173907F1
:1014D00009F444C011963C932E9381E0782A129629
:1014E000D1E000341D0709F0A6CF7720C9F181E0D3
:1014F00080937C010E94B20590937B0180937A01D6
:1015000080917A0190917B010E94A305069760F17A
:101510008091EC019091ED01909311028093100263
:101520008091EE019091EF0190931302809312024B
:101530008091F0019091F101909315028093140233
:101540008091F2019091F30190931702809316021B
:1015500010927C0109C090E080E0A8CF80E0BECF6F
:1015600080917C018111CCCF872DDF91CF911F918C
:101570000F91FF90EF90DF90CF90BF90AF909F9032
:101580008F907F900895CF9384E090E00E94EA1FAF
:10159000C82F81E290E00E94EA1F982F8C2FCF91F4
:1015A00008950F931F93CF93DF93C42FD0E0CC0FF8
:1015B000DD1F26E1629FC00DD11D112438E5839FF8
:1015C000C00DD11D1124CE0186960E94EA1F082F5E
:1015D00010E0102F0027CE0187960E94EA1F980185
:1015E000282BC901DF91CF911F910F910895462FAC
:1015F000843038F4743028F46B3018F4672F0C946E
:10160000D10A90E080E00895CF93DF930E94F70A1B
:10161000EC0182389105A9F1D8F58133910509F4DF
:1016200096C048F58932910509F48AC08A9709F471
:1016300095C0C11521E5D20708F0BCC0C11530E541
:10164000D30708F014C1C83ED10508F09CC0C03EC5
:10165000D10560F5C83AD10508F087C0C53AD10573
:1016600008F0FDC0C130D10509F12097F9F0C43070
:10167000D105E0F440C08533910509F45AC0C997FB
:10168000C1F68091F401837089F0C0EED0E00EC005
:10169000833E910599F170F4803E910501F1823EFF
:1016A000910539F68091F40182FD21C0CE01DF91D0
:1016B000CF910895863E910561F1873E910571F1C4
:1016C000843E910509F0B5CF8091F50181FFEECF01
:1016D0008091F401C7EED0E084FD0DC0E7CF80918A
:1016E000F40180FD12C19091F50190FFDFCFC3EEB0
:1016F000D0E084FFDBCFD0E0C0E0D8CF8091F40110
:1017000082FD06C19091F50190FDBFCF84FFCECF41
:10171000F2CF8091F40183FDDDCFC8CF8091F40139
:1017200083FDF9C09091F50191FFF0CFC4EED0E0B8
:10173000BDCF8091F40185FFB9CFC9E2D0E0B6CF2B
:101740008091F40185FFB2CFC5E3D0E0AFCF8091A7
:10175000F40186FFABCFCAE2D0E0A8CF8091F401BC
:1017600086FFA4CFC1E3D0E0A1CFCF3BD10518F6CF
:10177000C85AD0E0CC0FDD1FC25FDE4F0990D88180
:10178000C02DD46493CFC11540E2D40758F4C115DD
:1017900081E0D80708F08ACFC03FD10508F4ABCF6D
:1017A000D06584CFC11590E4D90708F4A4CFDF70C9
:1017B000D06A7CCFC11525E5D20700F5C11534E507
:1017C000D30708F08AC0C11543E5D40708F071C0FB
:1017D000C11582E5D80708F467C0CE018370992748
:1017E00021E030E002C0220F331F8A95E2F7C69550
:1017F000C69580E2C89FE001112452C0C11599E549
:10180000D907A8F4C11528E5D20708F06BC0C115A7
:1018100036E5D30708F06FCF8C2F0E949308C82FAE
:10182000D0E0DC2FCC27CC27DF71D0623FCFC115B1
:101830004AE5D40708F45BC0CE019056811590426A
:1018400008F059CF8D2F8F710E94930890E0982F48
:10185000882788279F719C012C2BE901E6CFC55A68
:10186000D0E0C55FDE4FC881D0E0D0641FCFCE018D
:10187000E4E096958795EA95E1F783702C2F2695FD
:101880002695237040E2249F90011124382B8C2F41
:101890008370C1E0D0E002C0CC0FDD1F8A95E2F773
:1018A000C22BD32BDC6802CFDC2FCC27C16FD06AD0
:1018B000FDCECE018370992721E030E002C0220FD7
:1018C000331F8A95E2F7C695C69590E2C99FE0015D
:1018D0001124C22BD32BDA68E9CEDC2FCC27C46FBE
:1018E000D06AE4CEDC2FCC27C06FD06ADFCE8C2F3D
:1018F0008F700E94930834E0D695C7953A95E1F72A
:10190000CF709C2FEC01D069D1CEC9E3D0E0CECE10
:10191000C2EED0E0CBCEC6EED0E0C8CEBF92CF9222
:10192000DF92EF92FF920F931F93CF93DF938C017F
:10193000C0904B02D0904C02E0904D02F0904E02CD
:101940008091E3019091E401A091E501B091E6015D
:10195000C82AD92AEA2AFB2ACFE1D0E0BC2ED70137
:10196000C6010C2E04C0B695A795979587950A9445
:10197000D2F780FD0EC0219788F7B12C8B2DDF9117
:10198000CF911F910F91FF90EF90DF90CF90BF907C
:101990000895B8018C2F0E94040B019761F3EECFDC
:1019A000CF93DF93EC010E948E0CBE01DF91CF91AB
:1019B0000C94040B0E94D00C292F2F7092959F70CD
:1019C00092509E3078F4E92FF0E0E25DFF4D0C94E8
:1019D000C91F803F19F020F4883E20F481E008956B
:1019E000843FE1F380E00895883EC0F3813FD1F762
:1019F000F5CF822F86958695869508956F927F9272
:101A00008F929F92AF92BF92CF92DF92EF92FF920E
:101A10000F931F93CF93DF938AECC82E81E0D82ECB
:101A200094E9E92EF12CE701C855D10936011BC014
:101A3000F50185909490692DC8010E94F81F682DCA
:101A4000C80101960E94F81F82E0A80EB11C0E5F2B
:101A50001F4FC017D10761F786E1680E711C6696AB
:101A6000CE15DF0529F08E01065111095301E0CF93
:101A70007E0188E5E80EF11C88E5C80ED11C84EFD4
:101A8000E81681E0F80679F6DF91CF911F910F916A
:101A9000FF90EF90DF90CF90BF90AF909F908F908E
:101AA0007F906F900895CF93DF93C6E8D1E060E018
:101AB000CE010E94F81F2196C11584E0D807B9F71E
:101AC000DF91CF910895CF93C82F6FEF811160E21E
:101AD00082E290E00E94F81F6FEFC11160E183E2A3
:101AE00090E00E94F81F6FEFC11162E084E290E085
:101AF000CF910C94F81F6CEE7EEF90E080E00E9496
:101B0000162060E082E090E00E94F81F60E083E031
:101B100090E00E94F81F1092E3011092E4011092ED
:101B2000E5011092E60160E084E090E00E94F81F79
:101B300060E081E290E00E94F81F60E085E090E0C4
:101B40000E94F81F60E086E090E00E94F81F6FEFAF
:101B500087E090E00E94F81F40E050E0BA0188E082
:101B600090E00E940A2060E08DE090E00E94F81F63
:101B700040E050E0BA0188E190E00E940A2060E075
:101B800087E190E00E94F81F40E050E0BA018CE14C
:101B900090E00E940A2060E080E290E00E94F81F3E
:101BA00040E050E0BA018FE090E00E940A2040E05F
:101BB00050E0BA0183E190E00C940A201092E10118
:101BC00080910A01ECE5F1E0882359F08091F4015D
:101BD00087FF07C08EE1DF011D928A95E9F70C941B
:101BE000320786E0F8CF1F93CF93DF93CDB7DEB7F0
:101BF000AA970FB6F894DEBF0FBECDBF82E492E085
:101C00002091F100DC012D93CD01B2E08A349B07D5
:101C1000B9F780914302833009F471C0B8F4813080
:101C200009F448C0823009F4B2C08091E80083FF13
:101C300093C280914202909143029A3008F08CC284
:101C4000E92FF0E0E45CFF4D0C94C91F8A3009F4E1
:101C50008DC08B3009F470C0893039F78091420211
:101C6000813219F78091460290914702009711F056
:101C70000297D9F68091E800877F8093E8008091F1
:101C8000E80082FF37C09091F3008091F200029744
:101C900029F48091F1008B7F813021F48091F10053
:101CA00080931E028091E8008B778093E8000E9469
:101CB0004E03BBCF80914202813A09F0B6CF8091AA
:101CC000E800877F8093E800809146029091470268
:101CD000892B61F460E28FE192E070E00E940004E1
:101CE0008091E8008B778093E8009FCF60E090E0E0
:101CF00080E0F3CF80914A028111C1CF96CF8091CD
:101D00004202813A09F091CF8091460290914702B8
:101D1000892B09F08ACF8091E800877F8093E800C3
:101D20008091E80080FFFCCF80910A018093F10050
:101D30008091E8008E77B9CF80914202813209F01C
:101D400074CF8091460290914702892B09F06DCFA4
:101D50008091E800877F8093E8000E944E03809185
:101D6000440280930A010E94DE0D5FCF80914202FF
:101D7000813209F05ACF8091E800877F8093E80094
:101D80000E944E038091450280931D024ECF8091A8
:101D90004202813A09F049CF8091E800877F809321
:101DA000E8008091E80080FFFCCF80911D02BECF4B
:101DB000803899F0823809F0CFC1809146028F7047
:101DC000873008F0C9C18093E9008091EB0085FB62
:101DD000882780F91092E90006C080913F02909117
:101DE0004002911182609091E800977F9093E80003
:101DF0008093F1001092F1008091E8008E77A8C1E5
:101E0000882309F496C1823009F0A6C1809144026A
:101E1000811199C1809146028F702FEF280F2630D3
:101E200008F09AC18093E9002091EB0020FF8BC15C
:101E3000933031F48091EB0080628093EB0083C19A
:101E40009091EB0090619093EB0021E030E001C0B5
:101E5000220F8A95EAF72093EA001092EA00809117
:101E6000EB008860EACF811177C1109144021F779F
:101E70008091E3008078812B8093E3008091E800DB
:101E8000877F8093E8000E944E038091E80080FFE6
:101E9000FCCF8091E30080688093E30082E0111121
:101EA00083E080934A0258C18058823008F054C1C0
:101EB00020914402309145022C3DE3E03E07A1F51C
:101EC00083E08A838AE289834FB7F894DE01139610
:101ED00020E03EE051E2E32FF0E050935700E49120
:101EE00020FF03C0E295EF703F5FEF708E2F90E010
:101EF000EA30C0F0C7968D939D932F5F243159F738
:101F00004FBF8091E800877F8093E8006AE270E02D
:101F1000CE0101960E9400048091E8008B778093A7
:101F2000E8001AC1C096E7CF80914602909147021F
:101F3000432F55274330510509F44AC078F5413005
:101F4000510509F485C08BE590E0E2E2F4E042300F
:101F5000510509F001C12091E800277F2093E80096
:101F600020914802309149028217930708F49C019E
:101F700040E02115310509F070C041116EC080911B
:101F8000E80082FDC9CF80914A02882329F285307A
:101F900019F28091E80083FFF2CFBECF41325105A4
:101FA00009F447C04232510509F0D6C0833091058B
:101FB00008F0D2C0FC01EE0FFF1FE25BFE4F019064
:101FC000F081E02D855B9E4FDC018C9190E01DC07F
:101FD000332721303105E9F02115310579F0223020
:101FE0003105F9F02330310509F0B6C0EFE8F4E02F
:101FF000E4918E2F90E0EFE8F4E007C0E1ECF4E02C
:10200000E4918E2F90E0E1ECF4E0009709F4A4C095
:10201000A2CFE1EBF4E0E4918E2F90E0E1EBF4E06D
:10202000F4CFE5E9F4E0E4918E2F90E0E5E9F4E007
:10203000ECCF8330910508F08FC0880F991FFC0109
:10204000EC5AFE4F0190F081E02D89E090E083CFC3
:1020500082E190E0EDE7F4E07ECF80914A028823B0
:1020600009F45ACF853009F457CF8091E80083FDF9
:1020700053CF8091E80082FD82CF8091E80080FFFD
:1020800078CF9091F3008091F2002115310519F07D
:102090008830910550F041E0089709F040E08091C8
:1020A000E8008E778093E80064CF44914093F1007C
:1020B0003196215031090196E8CF803809F04CC0A3
:1020C0008091E800877F8093E800809141028093AF
:1020D000F10092CE811140C0109144021230E0F51F
:1020E0008091E800877F8093E800109341020E946E
:1020F0004E03112311F084E005C08091E30087FDB9
:10210000FACF81E080934A0242E061EC81E00E94D4
:102110006D0342E261EC84E00E946D0342E261ECF7
:1021200082E00E946D0342E260EC83E00E946D0356
:1021300013C080914402813079F481E0933009F03A
:1021400080E0809340021092E9008091E800877F50
:102150008093E8000E944E038091E80083FF0AC04C
:102160008091E800877F8093E8008091EB00806297
:102170008093EB00AA960FB6F894DEBF0FBECDBFDA
:10218000DF91CF911F9108954F925F926F927F924E
:102190008F929F92AF92BF92CF92DF92EF92FF9277
:1021A0000F931F93CF93DF9300D000D00F92CDB742
:1021B000DEB77C01FC0183819481892B31F0808121
:1021C000918189238F3F09F02DC60F900F900F90BA
:1021D0000F900F90DF91CF911F910F91FF90EF9093
:1021E000DF90CF90BF90AF909F908F907F906F9037
:1021F0005F904F9008950E948E0C182F682F898150
:102200009A810E94A60669817A81812F0E94F70A2D
:102210008C01F7018281882309F4A7C59801225116
:102220003F452031310508F028C58FEF93E00E942B
:10223000EA1F025166E8A62EBB24B3948111C5CFD4
:10224000011138C01C821B82882483945AE0752EA9
:1022500085010F5F1F4FC5010E94EA1F89831A8203
:10226000882309F4B2CF9FEF980F933090F58A83BB
:10227000898232E0A30EB11CC8010E94EA1F8B8341
:10228000882309F4A2CF8E010F5F1F4FF801208130
:102290002223F1F2213009F056C08181F280813091
:1022A000D1F40E5F1F4F8F2D0E9412088F2D0E94B8
:1022B000D90718C0A114F4E0BF0609F486CFC50100
:1022C0000E94EA1F811101C001502FEFA21AB20A29
:1022D000B7CF5801D8CF823041F40E5F1F4F8F2DFA
:1022E0000E9412080F5F1F4FD1CF833019F40E5F89
:1022F0001F4FDCCF843019F00F5F1F4FF3CF0E5FFD
:102300001F4F30E020E0B8016F5F7F4FF80141813F
:10231000EF2DE053FF0BCF013A9750F021503109D8
:1023200008F38FE99FE00197F1F700C00000F6CFB6
:10233000729EF001739EF00D11249C012E0F3F1F21
:10234000F42E8B01E0CFE22FF0E0EE55FC4F94909D
:10235000822F86958695869590E0FC01EE56FC4F7F
:10236000C4902770D12C022E02C0D594C7940A9431
:10237000E2F7E1E0CE22DD24FC01EE57FC4FE490D1
:10238000F12C02C0F594E7942A95E2F7F1E0EF22F0
:10239000FF24C114D10419F081EE0E941208E11447
:1023A000F10419F086EE0E941208892D0E948F090F
:1023B000EF2819F086EE0E94D907CD2809F492CFB4
:1023C00081EE75CF81E00E94AE0703C081E00E94DC
:1023D00073070F900F900F900F900F90DF91CF9198
:1023E0001F910F91FF90EF90DF90CF90BF90AF9033
:1023F0009F908F907F906F905F904F900C945707B5
:1024000082E0E1CF82E0E3CF82EE0E941208D0C4E6
:1024100083E00E94E70688E10E94120888E10E949A
:10242000D90783E00E94DC06C3C482EE0E94120832
:1024300087E50E948F09BCC486EE0E948F0988E15F
:10244000F8CF0697D2C482EE0E94D907E6C48CE288
:102450000E948F09E2C488E2FBCF033FFCE51F071F
:10246000D9F140F5083D3CE5130791F1093D8CE5B4
:102470001807F1F1073D9CE5190709F017C426E29A
:1024800041EE61EEC7010F900F900F900F900F90EB
:10249000DF91CF911F910F91FF90EF90DF90CF9040
:1024A000BF90AF909F908F907F906F905F904F9074
:1024B0000C94A209053FECE51E07B1F088F0063F39
:1024C0002CE5120709F0F2C327E245EE66EEDACFFB
:1024D00027E245EE65EED6CF26E241EE60EED2CFA2
:1024E00027E245EE64EECECF26E241EE62EECACFA1
:1024F00028E241E0EFCF8091F401806106309CE555
:10250000190709F48CC08091F401886007301C45DC
:1025100008F485C08091F401806281C08091F4014B
:102520008D7F0C30FCE51F0709F479C070F48091B1
:10253000F4018C600A303CE5130709F470C008F41C
:1025400081C08091F4018E7F6AC08091F401877F01
:102550000E309CE5190709F462C08091F4018B7F6D
:102560000F301C4508F45BC08091F4018F7E57C08A
:102570000B3FFCE51F0709F45DC030F503313CE576
:10258000130709F46DC078F401319CE5190709F4CB
:1025900063C002311C4509F0C4C30E94DE0D809166
:1025A000F4018F773CC00531FCE51F0709F460C0DA
:1025B00008F474C08091F50181600A3F1C4509F060
:1025C000B0C38093F501ADC30F3F8CE5180709F444
:1025D0004BC088F48091F5018D7F0D3FECE51E071F
:1025E00081F38091F5018E7F0E3F1C4550F3809161
:1025F000F5018360E6CF01302DE5120709F457C0DD
:1026000008F442C060E002301D4509F08AC38EE044
:1026100090E00E94F81F85C38091F401816080934F
:10262000F4017FC38091F4018260F9CF8091F401BD
:102630008460F5CF8091F5018260C3CF8091F40171
:102640008064EDCF0E94DE0D8091F4018068E7CFB9
:102650008091F4018F7DE3CF8091F4018F7BDFCFF8
:102660008091F401837FDBCF8091F5018C7FA9CF2E
:102670008091F40182FB992790F921E0922790FB49
:1026800082F990FB83F9CBCF8091F501982F90953B
:1026900091708E7F892B90FB81F993CF0E94DE0D84
:1026A0009091F401892F97FB87F98058B8CF61E0AA
:1026B000AECF06319CE5190709F0D2C38091E10144
:1026C0008A7A91E009F490E09093850169E28111A2
:1026D00065E38AE591E00E94FE050F900F900F9050
:1026E0000F900F90DF91CF911F910F91FF90EF907E
:1026F000DF90CF90BF90AF909F908F907F906F9022
:102700005F904F900C9439060E94DE0DEFEFF4E3DA
:102710002CE0E150F0402040E1F700C000000E94B2
:1027200092050F900F900F900F900F90DF91CF9127
:102730001F910F91FF90EF90DF90CF90BF90AF90DF
:102740009F908F907F906F905F904F900C947B0D37
:10275000C8010E947E06D82E9AC3212F2F70A22E68
:10276000107F19F0A29490EFA922DD20C9F0AA20D1
:1027700069F080E2800F883010F081100BC08091EA
:10278000E101A82AA092E1010E943906802F0E944F
:10279000120818C08091E001A82AA092E001F4CFAD
:1027A000802F0E94D907AA2069F0A094005E08300B
:1027B00010F081103BC08091E101A822A092E101BC
:1027C0000E943906EB2DE850FF0B349710F40E945D
:1027D0008708CC2009F4F9CC8091DE0180FDF5CC8E
:1027E000F70112828595859585950E94AE07C701F0
:1027F0000E94C4108091DE018595859585950F9086
:102800000F900F900F900F90DF91CF911F910F912C
:10281000FF90EF90DF90CF90BF90AF909F908F9000
:102820007F906F905F904F900C9473078091E001C0
:10283000A822A092E001C4CF312F3F70932E107FC9
:10284000103219F0929480EF9822882071F091E074
:10285000891661F1DD20B9F1AA2071F1F7018581B6
:1028600080FF94CF8F70858327C0DD2091F09091F9
:10287000E201892F8929A11003C00E94FC06A2CF82
:10288000E1E0AE12FACF891709F49CCF8093E20100
:1028900099CFA11006C00E943306892D0E94F1062F
:1028A00091CFF1E0AF1609F48DCFF5CFDD2031F0F7
:1028B00025E02A1508F486CF892DDFCF34E03A15BC
:1028C00008F480CFEACFAA2041F3093349F4FFEF9F
:1028D00027EE33E0F15020403040E1F700C0000027
:1028E000802F0E94D9076ECF812F869586958370A1
:1028F00061F0813009F066CFC8019370D11002C039
:1029000090E080E00E9406075DCFC8019370D1106F
:1029100002C090E080E00E941C0754CFDD2009F146
:10292000053F99F0063FB9F0043F49F480918601D4
:102930009091870181609093870180938601802F19
:102940000E942A050E94BE053DCF8091860190918C
:1029500087018260F0CF8091860190918701846029
:10296000EACF053F89F0063FA9F0043F49F4809182
:102970008601909187018E7F9093870180938601D5
:10298000802F0E946904DECF80918601909187019B
:102990008D7FF2CF80918601909187018B7FECCF64
:1029A000812F837009F066C0D1100CCF802F8295E3
:1029B00086958770880F880F602F6F70462E512C78
:1029C000712C612C082E04C0440C551C661C771C0D
:1029D0000A94D2F740E050E0BA0104FF0FC04FE084
:1029E00050E060E070E004C0440F551F661F771F81
:1029F0008A95D2F74095509560957095812F869570
:102A000086958370823019F1D8F40091E30110911A
:102A1000E4012091E5013091E601813069F044291B
:102A2000552966297729CB01BA01602371238223B6
:102A300093230E94CF07C6CE402A512A622A732AC6
:102A4000CB01BA016429752986299729F2CF442937
:102A50005529662977290091E3011091E40120911D
:102A6000E5013091E601CB01BA0160277127822789
:102A70009327DFCF8695DD2011F0812F8170882389
:102A800009F4A0CE802F829586958770880F880FD5
:102A9000602F6F70462E512C712C612C082E04C0B3
:102AA000440C551C661C771C0A94D2F740E050E099
:102AB000BA0104FF0FC04FE050E060E070E004C0D6
:102AC000440F551F661F771F8A95D2F74095509582
:102AD00060957095812F869586958370823019F167
:102AE000D8F400914B0210914C0220914D0230918C
:102AF0004E02813069F04429552966297729CB0196
:102B0000BA0160237123822393230E944D075ACE7A
:102B1000402A512A622A732ACB01BA0164297529F5
:102B200086299729F2CF44295529662977290091CA
:102B30004B0210914C0220914D0230914E02CB017C
:102B4000BA016027712782279327DFCF1F70DD200E
:102B500029F0812F0E94AE07802F8FCE802F0E94F8
:102B6000F106812F0E9473072DCE802F92EF8916D8
:102B700009F450C0981578F0E0EF8E1619F1F1EFD6
:102B80008F1609F43FC0DD2009F467C0A110FECD07
:102B9000812F8F713CC023EF821609F440C034EFBF
:102BA0008312F1CFDD2009F44DC01F71812F0E94E7
:102BB000AE07E8E01E9FC001112483608093DE0110
:102BC000812F25C0DD20C9F084E08A1508F4FACDF4
:102BD0001F7161E070E080E090E004C0660F771F35
:102BE000881F991F1A95D2F700914B0210914C0241
:102BF00020914D0230914E02A4CF95E09A1508F431
:102C0000E1CDE6CF812F8F71DD2009F4ABCF0E949B
:102C1000AE07D8CD812F8F71DD20C9F3A3CF60E03F
:102C200070E0CB01DD2009F470CF1F7161E070E02E
:102C300080E090E004C0660F771F881F991F1A95E7
:102C4000D2F763CF81E00E949607F1E0FA1508F011
:102C5000B9CD82E00E949607B5CDAA2059F08933FC
:102C600009F03ECE2FEF37EE83E021503040804018
:102C7000E1F734CE812F8F7175CF0031FFE51F074B
:102C800009F4A0CB01312FE5120709F4B9CB980163
:102C9000215E3C452530310508F071C06FE1600FC1
:102CA0006093E8018CE090E00E94F81FF7018281B8
:102CB000882309F4C8C0109284010230FCE51F0784
:102CC00008F4F7CC06312CE5120738F098012A5F9A
:102CD0003C452930310508F0ECCC0E94C30A9093A2
:102CE000F5018093F40100313CE5130709F4B0CC01
:102CF00008F03ECC08309CE5190709F49FCC08F099
:102D00000DCC0430FCE51F0709F490CC08F0F3CBA0
:102D100002303CE5130709F47FCC03301C4509F46D
:102D200081CC6091F4011091F50184E090E00E9463
:102D3000F81F612F81E290E00E94F81F0F900F9022
:102D40000F900F900F90DF91CF911F910F91FF90F7
:102D5000EF90DF90CF90BF90AF909F908F907F903B
:102D60006F905F904F900C94DE0D00313FE513079C
:102D700009F42CCB01319FE5190709F443CB17FF68
:102D80006CCB882309F492CF8091E1018093830179
:102D90001092E1018091E801813009F439CB882358
:102DA00009F432CB823009F440CB843009F444CBAF
:102DB0008FE39CE90197F1F700C000005801E89407
:102DC000B7F84CE0C42ED12C95010C2C02C03695DE
:102DD00027950A94E2F72F7087E290E031F0822F76
:102DE00090E02A3008F02DCB4D960E948F0994E098
:102DF000C91AD108ECEFCE16EFEFDE0629F7809165
:102E0000E801813009F423CB882309F41CCB8230FC
:102E100009F419CB843009F41ECB8091830180938F
:102E2000E10144CF85E0DE01119601900D928A9573
:102E3000E1F7F701228189819A812111DCC90E9481
:102E40007E06182FE0C906311C4599F48091850152
:102E500069E2811165E38AE591E00E94D4053DCCE9
:102E600001152CE5120709F44FCC0E3D1C4509F461
:102E700058CCF70100811181882309F469CCC8017D
:102E80000E948E0CD82E682FC8010E94A606B80199
:102E90008D2D0E94040B8C01882EF701A580A29431
:102EA0003FE0A322D280D1101092E0018091DE0198
:102EB000877079F0DD2069F080E2800F883048F07B
:102EC00082E00E9496078091DE018770CC24C39433
:102ED0008111C12CB12EB2942FE0B222FBE0FB1580
:102EE00008F470CCEB2DF0E0EA5BFF4D0C94C91FA9
:102EF0001F93CF93DF9380918D01807FA9F4809100
:102F00008A01882389F08091BF01D0918E01609160
:102F1000880170918901A0918B01B0918C01C62F1D
:102F2000C72316E0D81304C0DF91CF911F910895F5
:102F300090E0109711F0CF3F19F401968770F2CF0F
:102F4000189F9001199F300D1124F901E157FE4F90
:102F500041814713F2CF40814613EFCF42814111A7
:102F6000ECCF438154814A1B5B0B483C510528F749
:102F700080918D018F70806180938D01F901EC56F5
:102F8000FE4F80818F708061808388E891E00E948D
:102F9000C410DF91CF911F910C94D206AF92BF92D3
:102FA000CF92DF92EF92FF920F931F93CF93DF9315
:102FB000CDB7DEB761970FB6F894DEBF0FBECDBFB9
:102FC0008C0185E0F801DE011D9601900D928A9535
:102FD000E1F7F80180819181E28028E8A22E21E0CA
:102FE000B22E60918B0170918C016115710509F40D
:102FF0003EC13091880140918901232F24232F3F26
:1030000009F435C1C380D480F0908A01F601E61B33
:10301000F70BFF2009F4FBC020918D01522F507F48
:10302000E83CF10508F0BBC0511178C0FE2C4913F3
:1030300021C038131FC0E1101DC02F7020612093E4
:103040008D01C5010E94C41080918D01F801858316
:103050008F2D61960FB6F894DEBF0FBECDBFDF9106
:10306000CF911F910F91FF90EF90DF90CF90BF9085
:10307000AF900895CD2829F0282F29232F3F09F05C
:1030800014C120E0F22FF170DF2E20FF3DC020910F
:10309000BF0140918E0156E0241315C08D879E8795
:1030A0008D859E850E94D00C292F22952F7022306D
:1030B000F8F0243020F59F70F9F0F8019581907FA9
:1030C000D9F4D12C1FC030E0529FF001539FF00D76
:1030D0001124E157FE4F6181961306C0608186136B
:1030E00003C06281E61210C02F5F3F4F2770D4CF1C
:1030F0009F7011F0882329F3805E883010F3C80197
:103100000E94C410FD2CA4CFEE2009F4A1CF809121
:103110008D01816080938D01F12C9ACF491312C0EB
:10312000381310C0E1100EC0F8012583C8010E94B9
:10313000C41086E0F801A8E8B1E001900D928A95EC
:10314000E1F786CF8D879E878D859E850E94DA0C5C
:10315000882309F1EE20F9F080918D01803270F022
:10316000209188013091890138872F831986DB8669
:10317000CA868C87CE0107960E94C41086E0F801AB
:10318000A8E8B1E001900D928A95E1F70E947817C6
:10319000FF24F3945DCFC8010E94C410F9CF5111F0
:1031A0000AC088E891E00E94C41086E0F5011192FF
:1031B0008A95E9F7B1CF49130FC038130DC0E1105C
:1031C0000BC0F8012583C8010E94C41086E0F501F8
:1031D00011928A95E9F73CCF8D879E878D859E85D4
:1031E0000E94DA0C8823B9F2EE20A9F280918D01B9
:1031F000803220F220918801309189013A8329831D
:103200001B82DD82CC828E83CE010196B5CFE83C55
:10321000F105E0F6FE2CEE2009F4BDCF491316C0EF
:10322000381314C080918D0180FD83CF982F907F3B
:1032300009F47FCFF8018583903F09F477CF982F69
:10324000907F905F8F70892B858370CF8D879E874D
:103250008D859E850E94DA0C811190CF80918D0121
:10326000816080938D01C8010E94C410F1CEEE20D0
:1032700009F491CF8D879E878D859E850E94DA0CFB
:10328000F82E882309F487CF86E0F801A8E8B1E09A
:1032900001900D928A95E1F78091880190918901C2
:1032A0000E94D00C0E947817D3CE21E02E25EACEC2
:1032B0001F93CF93DF93CDB7DEB767970FB6F89420
:1032C000DEBF0FBECDBF4B8B5C8B6D8B7E8B8F8B30
:1032D0001A8A198A85E0FE017396DE011D96019017
:1032E0000D928A95E1F786E0FE013D96DE01179684
:1032F00001900D928A95E1F7CE0107960E94CE17B4
:10330000811112C086E0FE013796DE011196019010
:103310000D928A95E1F78A859B85892B29F08F810B
:10332000988589238F3FB1F516E08091BF01909178
:103330008E0189131DC067960FB6F894DEBF0FBECD
:10334000CDBFDF91CF911F91089596E0929FD0015C
:10335000939FB00D1124A157BE4FFE0131960190ED
:103360000D929A95E1F780938E010E94D206DCCFF0
:10337000819FC001112481579E4F0E94CE17882340
:10338000D1F28091BF0190E00196877099278093D8
:10339000BF01CBCF20918E0130E0C901019687702B
:1033A00099274091BF014817190679F60E94DE0D52
:1033B00010928E011092BF0186E0E8E8F1E0DF0193
:1033C0001D928A95E9F7B0CF1F920F920FB60F9218
:1033D00011242F933F934F935F936F937F938F931A
:1033E0009F93AF93BF93CF93DF93EF93FF93D091CE
:1033F000E900DF708091EC00C82FC17080FDC0E84B
:103400001092E9008091F000877F8093F00078941B
:103410000E94F30D1092E9008091F0008860809383
:10342000F000CD2BCF70C093E900FF91EF91DF91B9
:10343000CF91BF91AF919F918F917F916F915F914C
:103440004F913F912F910F900FBE0F901F901895A5
:103450001F920F920FB60F9211242F933F934F9309
:103460005F936F937F938F939F93AF93BF93EF93EC
:10347000FF938091E10082FF09C08091E20082FF0A
:1034800005C08091E1008B7F8093E1008091DA009C
:1034900080FF24C08091D80080FF20C08091DA0096
:1034A0008E7F8093DA008091D90080FF9FC080E1F9
:1034B00089BD82E189BD09B400FEFDCF81E0809322
:1034C0004A0280911C02811109C00E94AC020E9434
:1034D0009F038091E20084608093E2008091E1008C
:1034E00080FF17C08091E20080FF13C08091E2004E
:1034F0008E7F8093E2008091E20080618093E20001
:103500008091D80080628093D80019BC85E08093B8
:103510004A028091E10084FF2DC08091E20084FF87
:1035200029C080E189BD82E189BD89B5982F91705C
:1035300080FFFBCF8091D8008F7D8093D800809151
:10354000E1008F7E8093E1008091E2008F7E809386
:10355000E2008091E20081608093E200809141026C
:10356000882309F449C084E080934A020E94DE0D5A
:103570000E9487088091E10083FF27C08091E200CC
:1035800083FF23C08091E100877F8093E10082E088
:1035900080934A02109241028091E1008E7F8093D5
:1035A000E1008091E2008E7F8093E2008091E20052
:1035B00080618093E20042E060E080E00E946D0361
:1035C0008091F00088608093F000FF91EF91BF91AF
:1035D000AF919F918F917F916F915F914F913F91AB
:1035E0002F910F900FBE0F901F90189519BC10923D
:1035F0004A0210921C0272CF8091E30087FD93E093
:1036000090934A02B3CFCDB7DEB7AA970FB6F8941E
:10361000DEBF0FBECDBF84B7877F84BF0FB6F894DF
:10362000A89580916000886180936000109260008E
:103630000FBE80E890E00FB6F894809361009093FD
:1036400061000FBE85B7806885BF85B7806885BF7C
:103650000E94AC020E949F038091E20084608093EC
:10366000E200789480914A028823A1F01091E90049
:103670001F709091EC00892F817090FD80E8182BCD
:103680001092E9008091E80083FD0E94F30D1F7005
:103690001093E90082E084BD93E095BD9AEF97BD59
:1036A00080936E00ACE3B1E040E451E061E070E093
:1036B0008D91E82FE295EF70F0E011A18F709B01E2
:1036C00001C0220F8A95EAF7922F9095912391A33A
:1036D00082A1822B82A34A175B0751F7A0E4B1E0D5
:1036E00061E070E08D91E82FE295EF70F0E041A18C
:1036F0008F709B0101C0220F8A95EAF7922F909557
:10370000942391A382A1822B82A321E0AB34B20740
:1037100049F71092ED011092EC01109211021092F3
:1037200010021092EF011092EE011092130210920B
:1037300012021092F1011092F001109215021092F3
:1037400014021092F3011092F201109217021092DB
:1037500016020E94060A4FEF86E791E04150804032
:103760009040E1F700C000000E94060A809110021C
:1037700080FF0BC080E00E94630D6FEF7FEF90E051
:1037800080E00E9416200E94920590E080E00E9456
:10379000F21F8C3E9E4F11F00E947B0D8CE090E05A
:1037A0000E94EA1F90E0B0E0A0E08093E8019093CF
:1037B000E901A093EA01B093EB0182E290E00E945C
:1037C000EA1F803209F066C383E290E00E94EA1F9C
:1037D000803109F05FC384E290E00E94EA1F8230EA
:1037E00009F058C390E080E00E94F21F8C3E9E4F8B
:1037F00011F00E947B0D82E090E00E94EA1F80930E
:1038000007020E94C30A9093F5018093F40183E0BC
:1038100090E00E94EA1F682F70E090E080E00E9434
:10382000CF0780E091E09093F7018093F601DD24CB
:10383000DA9452E0252E6AE7362E70E1772EE8E51D
:103840004E2EF6E15F2EA9E06A2ECC24C394B8E197
:103850008B2E912C80914A02853009F45EC10E9422
:10386000060AA0E1B2E0E8E0F2E010E000E0702F2C
:103870008D919D91219131912817390709F48CC1BF
:1038800060E0EE24E394F12C28273927A9014E218A
:103890005F21452B09F47AC169A37AA39C012E21EB
:1038A0003F2191E0232B09F490E09BA30E94B205F5
:1038B0008160782F9DA38CA349A15AA16BA18DA1F2
:1038C0000E945819000F111FF801E85FFD4F808119
:1038D0009181E826F926F182E08286E0E0E0F2E0DC
:1038E000DE01119601900D928A95E1F78091020216
:1038F00090910302892B09F468C08091FE01909198
:10390000FF010E94A3059C019091FD01992309F4F8
:10391000DCC22333310508F458C09F3F19F09F5F84
:103920009093FD0110920402109205028091020210
:10393000181624F40E940A05809302028091020264
:1039400087FF05C00E940A0581958093020280913D
:103950000302181624F40E940A0580930302809142
:10396000030287FF05C00E940A0581958093030228
:10397000309102023323B1F020910302222391F00F
:1039800045EB3403C0011124992309F41BC1909322
:10399000020245EB240390011124332309F415C1DD
:1039A000309303020E94BE058091FB019091FC01BF
:1039B0009093FF018093FE0186E0FE013196A0E026
:1039C000B2E001900D928A95E1F780910402909106
:1039D0000502892B09F468C08091F9019091FA01E0
:1039E0000E94A3059C019091FD01992309F468C2EE
:1039F0002536310508F458C09F3F19F09F5F90931A
:103A0000FD01109202021092030280910402181626
:103A100024F40E94E804809304028091040287FF4A
:103A200005C00E94E80481958093040280910502FC
:103A3000181624F40E94E804809305028091050280
:103A400087FF05C00E94E8048195809305023091AC
:103A500004023323B1F020910502222391F045EBBB
:103A60003403C0011124992309F4B2C090930402D5
:103A700045EB240390011124332309F4ACC03093A7
:103A800005020E94BE058091FB019091FC0190937C
:103A9000FA018093F90186E0FE013196A0E0B2E0E0
:103AA00001900D928A95E1F70E9487089091060295
:103AB000891721F00E9487088093060280914A02AC
:103AC000843009F0C7CE83E08093E9008091E8005C
:103AD00082FFC0CE8091E80090E085FF0CC00E947C
:103AE000CB0230E2E32EF12C8E010F5F1F4F8823B3
:103AF00009F47EC091E08091E8008B778093E80024
:103B0000992309F4A7CEE981E150E33108F0D3C04D
:103B1000F0E0EE5AFF4D0C94C91F80914A028430A8
:103B200011F11092F80180E40FB6F894A8958092F4
:103B300060000FBE8093600083B7817F846083BF85
:103B400083B7816083BF7894889583B78E7F83BF66
:103B50000FB6F894A895809160008861809360000A
:103B6000109260000FBE80914002882309F472CE4B
:103B70000E94060AE0E1F2E081919191892B09F01F
:103B800074C122E0E831F207B9F764CE6F5FEE0C42
:103B9000FF1C6B3009F07ACE0F5F1F4F0430110508
:103BA00009F065CEDEA2DFA218A60E94B2058160F0
:103BB000782F9AA789A74EA15FA168A58AA50E9420
:103BC00058198BCEC0920202E4CEC0920302EACE14
:103BD000C09204024DCFC092050253CF8091F100F4
:103BE000F80181938F01F1E0EF1AF10809F482CF17
:103BF0008091E80085FDF2CF8091E8008B7780937B
:103C0000E8000E94CB02882399F374CF1A826B825A
:103C1000CE0101960E9426031DCE8A81823009F4CE
:103C200046C18330A9F0813009F045C02FB7F89420
:103C3000609118027091190280911A0290911B02F2
:103C40002FBF0E94CF1F6B837C838D839E83E0CF29
:103C500080911002909111029827892798279C83C0
:103C60008B838091120290911302982789279827BD
:103C70009E838D8380911402909115029827892745
:103C8000982798878F838091160290911702982722
:103C9000892798279A878987BBCF8A81823059F4F0
:103CA0006B817C818D819E810E94CF1F85E290E097
:103CB0000E94F81FADCFD982ABCF4C816B818A8136
:103CC0000E94D10A9827892798279E838D83A0CFA9
:103CD0000D811E811027012710278A81EB80E59C2A
:103CE00070011124849DE00CF11C11248C8190E062
:103CF000880F991FE80EF91E612FC70186960E9452
:103D0000F81F602FC7018796D3CF0E94FE0C80CF8B
:103D10007A827ECF2A823B827BCF0A811B81102749
:103D200001271027CE0101967C01AC80FC01EA0D31
:103D3000F11D5F01C8018A579E4FAE14BF0409F4FC
:103D400067CF0A37F2E01F0750F40E94EA1FF7011D
:103D500084830F5F1F4FFFEFEF1AFF0AEBCFF701CE
:103D60001482F7CF0A811B81102701271027CE016B
:103D700001965C01EC80E00EF12EF11CC8018A571F
:103D80009E4FE016F10609F443CF0A37E2E01E0722
:103D900020F4F50164810E94F81FFFEFAF1ABF0AFB
:103DA0000F5F1F4FEBCF0E94530D32CF24E02A83C9
:103DB0002FCF0A811B81102701271027CE010196E2
:103DC0007C01AC80FC01EA0DF11D5F01C801869603
:103DD000EA14FB0409F41CCF0036F1E01F0750F48D
:103DE0000E94EA1FF70184830F5F1F4FFFEFEF1A56
:103DF000FF0AECCFF7011482F7CF0A811B8110274D
:103E000001271027CE0101965C01EC80E00EF12E17
:103E1000F11CC80186960E151F0509F4F9CE00366F
:103E2000E1E01E0720F4F50164810E94F81FFFEF16
:103E3000AF1ABF0A0F5F1F4FECCF80E00E94630DE7
:103E40006FEF7FEF90E080E00E941620E1CECE0180
:103E500001960E9426032FEF41EE84E0215040405E
:103E60008040E1F700C000008ECC79BC82E189BDC2
:103E700009B400FEFDCF8091D8008F7D8093D800DB
:103E80008091E00082608093E0008091E00081FDFD
:103E9000FCCFE0CC60E085E290E00E94F81F0E9439
:103EA000FE0C0E94530D81E00E94630D9BCC85E2C5
:103EB00090E00E94EA1F1B821C821D828E83A8CE86
:103EC0002D32314008F09ACDEFCD2D32314008F03F
:103ED00026CD7BCD78941F921FB61F9211248F930D
:103EE0009F93AF93BF938091180290911902A09174
:103EF0001A02B0911B020196A11DB11D80931802F8
:103F000090931902A0931A02B0931B02BF91AF9134
:103F10009F918F911F901FBE1F9018951F921FB6E3
:103F20001F9211248F939F93AF93BF938091F801B9
:103F3000811113C08091180290911902A0911A0268
:103F4000B0911B024196A11DB11D80931802909360
:103F50001902A0931A02B0931B02BF91AF919F91D7
:103F60008F911F901FBE1F90189597FB072E16F478
:103F7000009407D077FD09D00E94D61F07FC05D01A
:103F80003EF4909581959F4F0895709561957F4F70
:103F90000895EE0FFF1F0590F491E02D0994692715
:103FA000962769277827872778270895AA1BBB1BA0
:103FB00051E107C0AA1FBB1FA617B70710F0A61B29
:103FC000B70B881F991F5A95A9F780959095BC014A
:103FD000CD010895F999FECF92BD81BDF89A992738
:103FE00080B50895A8E1B0E042E050E00C941E20B6
:103FF000262FF999FECF92BD81BDF89A019700B4A2
:10400000021639F01FBA20BD0FB6F894FA9AF99A41
:104010000FBE08950396272F0E94F91F0E94F81FD4
:10402000252F0E94F91F242F0C94F91F0196272F8A
:104030000E94F91F0C94F81FDC01CB01FC01F999D7
:10404000FECF06C0F2BDE1BDF89A319600B40D92E4
:1040500041505040B8F70895F894FFCFE90CE90CAF
:10406000F20CF20CF40CF20CF20CF20CE90CE90C70
:10407000F90CF20CF20CF90CD80E000FAC10000F7A
:10408000AC10330F540FAC105D106A10AD13AD13AC
:104090001C141C1474148E14E213E213D014A6150D
:1040A000B515B515061E0D1E4D1E5D1E681E851E1E
:1040B0005B1E5B1E5B1E1D1F271F881E8A1E8D1E1A
:0A40C000B21ED31ED61ED91EFD1E2F
:1040CA00660449091E091A09080901818283E20066
:1040DA00E900EA00B500B600B700CD008301CC00C4
:1040EA008A01920194012102230224022502260256
:1040FA0027022A02B300B4006F0070009190946600
:10410A0097C634359293F7313332364022BC8A014E
:0A411A006801AC0034044D046D048C
:00000001FF
