:100000000C941A020C9461020C9461020C9461022B
:100010000C9461020C9461020C9461020C946102D4
:100020000C9461020C9461020C94931E0C94651F55
:100030000C94E7160C9461020C9461020C9461021A
:100040000C9461020C9461020C9461020C946102A4
:100050000C9461020C9434170C9461020C946102AC
:100060000C9461020C9461020C9461020C94610284
:100070000C9461020C9461020C9461020C94610274
:100080000C9461020C9461020C9461020C94610264
:100090000C9461020C9461020C9461020C94610254
:1000A0000C9461020C9461020C946102500C500C8F
:1000B000820C820CCF0CED0C0E0E0E0EF80C8D0D7A
:1000C0009E0D9E0DFE0D0E0E0E0E070EBC0EBC0EEE
:1000D000CE0ECE0EC50ECE0ECE0ECE0EBC0EBC0E6D
:1000E000CA0ECE0ECE0ECA0ED21FF91FF120F91F76
:1000F000F12045206820F120BF20CE2014001A00F6
:100100000800150017001C0018000C001200130056
:10011000000004001600070009000A000B000D0093
:100120000E000F002D4300001D001B0006001900EB
:10013000050011001000360037003800E500E0002F
:10014000E300E200E1002A422C4128444C00E60092
:10015000E40029001E001F002000210022002300CF
:10016000240025002600270000002B0000000000CE
:1001700035002F0030003100330034002D00000026
:1001800000000000000000002E002D000000010013
:100190000100010001000100010001000100010057
:1001A0000000010001000100010001003A003B00D5
:1001B0003C003D003E003F00400041004200430043
:1001C00000002B004400450000000000000000007B
:1001D0000000000000000000390046004700480011
:1001E000000053000000AA00A900A80001000100BF
:1001F00001000100010001000100000000000000FA
:10020000000001002900000000000000000049007B
:100210004B0052004E004C0000002B00000000007C
:10022000000000004A00500051004F000000000094
:10023000000000000000000000004D000000000071
:1002400000000000010001000100010001002A007F
:100250000000000000000000000001002900000074
:100260000000000000000000F400F000F5004C0069
:1002700000002B000000000000000000F900F20068
:10028000F100F3000000000000000000000000008A
:100290000000FA0000000000000000000100010062
:1002A0000100010001002A00000000000000000021
:1002B000000001000403300000001A035000340065
:1002C000320020004B006500790062006F00610081
:1002D0007200640000000E035000610062006900BB
:1002E0006C00650000000403090409023B000201E0
:1002F00000A0FA0904000001030101000921110115
:1003000000012240000705810308000A09040100DA
:10031000010300000009211101000122BC000705B2
:10032000820320000A1201100100000008666670B6
:100330006601000102030105010902A1018502090C
:1003400001A100050919012905150025019505756B
:1003500001810295017503810105010930093115FB
:1003600081257F95027508810609381581257F95BD
:100370000175088106050C0A38021581257F950153
:1003800075088106C0C005010980A1018503190116
:100390002AB700150126B700950175108100C00528
:1003A0000C0901A101850419012AA002150126A04A
:1003B00002950175108100C005010906A10185059E
:1003C000050719E029E71500250195087501810247
:1003D0000507190029EF1500250195F07501810227
:1003E0000508190129059505750191029501750307
:1003F0009101C005010906A101050719E029E715CA
:100400000025019508750181029501750881010596
:1004100007190029FF150026FF00950675088100C1
:1004200005081901290595057501910295017503C6
:100430009101C00011241FBECFEFDAE0DEBFCDBFB7
:1004400004B603FE27C080918E0290918F02A09186
:100450009002B09191028730904BA740B04BD1F4FD
:1004600010928E0210928F021092900210929102BE
:1004700014BE84B7877F84BF0FB6F894A895809187
:100480006000886180936000109260000FBEE0E021
:10049000F8E3099511E0A0E0B1E0EEE2F3E402C078
:1004A00005900D92A639B107D9F722E0A6E9B1E08F
:1004B00001C01D92AE38B207E1F70E94C21B0C9436
:1004C00095210C940000811107C0662311F089EA80
:1004D00001C08AEA0C94F90B08959C013A95211504
:1004E0003F4138F5DC01AA27B270AC0144275470B3
:1004F0009C012227387094FF0FC090FF02C080E15A
:1005000001C080E0AB2B09F08062452B09F08064CC
:10051000232B69F080680BC0892F8170AB2B09F009
:100520008260452B09F08460232B09F08860FB0171
:1005300009940895CF93DF93EC01805E91090897A9
:1005400010F0209719F46CE07CE002C062E87EE0D5
:10055000CE010E946D028C2FDF91CF910C946F0B16
:10056000CF93DF93EC010E94C50BCE01805E910911
:10057000089710F0209719F463E17CE002C069E865
:100580007EE0CE01DF91CF910C946D02CF93DF938B
:10059000EC010E949A02CE01DF91CF910C94B0023F
:1005A00081E0089581E008950C94D20208950C949E
:1005B000D6021F93CF93DF9300D000D01F92CDB708
:1005C000DEB749835A836B833091AF0189819A8169
:1005D000311114C0662359F0222349F00E94F5130B
:1005E000182F682F89819A810E949E1303C00E9450
:1005F000C913182F69817A81812F04C00E94F513D5
:1006000069817A810F900F900F900F900F90DF917A
:10061000CF911F910C94A103FC01262F40815181A1
:100620006281738184810C94D902CF93DF93EC01B2
:1006300060E00E940C03BE01DF91CF910C94D702C1
:100640000E942A15811102C00E94CA150E945D07EE
:100650000C94C0050C94BC05282F2F7041F0822FFC
:1006600090E02A3010F44D9608950697089587E299
:1006700090E0089508950C943A0381E008950C9455
:100680003D03CF93C82F0E943B038C2F0E943F0352
:10069000CF91089508950E94AA0E0E944A032FEF59
:1006A00084E39CE0215080409040E1F700C00000CE
:1006B0000C945A170F931F93CF93DF93EC0161E0D3
:1006C0000E940C038C01BE010E94D402882379F1A0
:1006D000BE01C8010E94D107882349F1BE01C801AB
:1006E0000E946308882319F1BE01C8010E94A40872
:1006F0008823E9F0BE01C8010E94CF098823B9F020
:100700008A81882369F001158CE5180731F00E3DC8
:100710001C4531F40E94CA150AC00E944B0307C051
:10072000CE01DF91CF911F910F910C94D00280E008
:10073000DF91CF911F910F91089580E090E008958F
:1007400008952CE2829FC0011124FC012BE0729FCE
:10075000E00DF11D1124E60FF11DEE0FFF1FE45017
:10076000FF4F859194910895880F991FFC01EC54D7
:10077000FD4F859194910895CF93DF930E94A1033B
:100780000E94D404EC018115904508F041C0C115C8
:1007900080E4D80708F0D1C0C83ED10510F5C03EAE
:1007A000D10508F0FDC0C83AD10578F4C53AD105A5
:1007B00008F0A2C0C130D10509F4F2C008F4EEC0BF
:1007C000C430D10508F0ECC0E9C0CF3BD10508F436
:1007D0009BC0C03CD10508F4E1C0CE01805C91090A
:1007E0009EC0C11590E2D90758F4C11521E0D20787
:1007F00008F0D6C0C03FD10508F4D0C0D065D0C045
:10080000C11580E3D80708F08EC0CE019F7087C065
:10081000C11595E5D90708F043C0C11524E5D207F5
:1008200008F0A2C0C11582E5D80708F5C11591E509
:10083000D90708F085C0CE0174E0969587957A9522
:10084000E1F783709C2F937021E030E002C0220F0B
:10085000331F9A95E2F73C68382BCF70C695C69542
:1008600080E2C89FE0011124C22BD32B99C09E01C6
:10087000237033278C2F86958695C115D34508F0B4
:1008800064C0C1E0D0E002C0CC0FDD1F2A95E2F7C2
:1008900020E2829FC0011124C82BD92BDC6880C0C4
:1008A000C11529E5D207A0F4C11588E5D80708F0DD
:1008B00060C0C11596E5D90708F070C08C2F0E9462
:1008C00068058F71C82FD0E0DC2FCC27D06268C0BC
:1008D000C1152AE5D20708F451C0CE019056811502
:1008E000904208F05BC08D2F8F710E946805DD2754
:1008F000D0628F71D82B54C0C55AD0E0CD5BDE4F8B
:10090000C881D0E0D0644CC0C85AD0E0CC0FDD1F05
:10091000CB5EDE4F0990D881C02DD46441C00E94C7
:10092000B403EC013DC0CE019927D3FF03C0EC0115
:10093000D86C36C0EC01D06C33C0DF70D06A30C0E8
:10094000DC2FCC27C16FD06A2BC0C1E0D0E002C041
:10095000CC0FDD1F2A95E2F720E2829FC00111240F
:10096000C82BD92BDA681CC0DC2FCC27C46FD06A07
:1009700017C0DC2FCC27C06FD06A12C08C2F8F70AD
:100980000E94680594E0D695C7959A95E1F7CF70D7
:10099000D0E0DC2FCC27D069C82B02C0C0E0D0E06B
:1009A000CE01DF91CF9108958238910569F1B0F4BD
:1009B0008133910509F46DC048F48932910509F439
:1009C00063C08A32910509F469C0089585339105A1
:1009D00009F455C089339105B9F00895833E910516
:1009E00069F138F4803E9105B1F0823E910509F13C
:1009F0000895863E9105A9F1873E9105B9F1843E9F
:100A0000910509F064C023C020917F0220FD4FC0F2
:100A100021FD4DC0089580917F0280FD44C08091EA
:100A2000800280FF44C080917F0284FD42C083EE3B
:100A30004DC080917F0282FF38C0F5CF80917F0248
:100A400082FD33C08091800280FD31C0ECCF809167
:100A5000800281FF32C080917F0284FD2AC087EE30
:100A600035C080917F0283FF26C0F5CF80917F0241
:100A700083FD21C08091800281FD1FC0ECCF809159
:100A80007F0285FD1CC01DC080917F0285FD19C0BD
:100A900016C080917F0286FD16C017C080917F022C
:100AA00086FD13C010C089E311C082EE0FC080EE36
:100AB0000DC080E00BC086EE09C084EE07C089E25D
:100AC00005C085E303C08AE201C081E390E0089598
:100AD00090917F0292FF0DC0282F2871283019F4C1
:100AE000877F846006C0282F2471243011F48B7F07
:100AF000886093FF0DC0282F2871283119F4877E54
:100B0000846106C0282F2471243111F48B7E886102
:100B10002091800220FF0DC0382F3871383019F431
:100B2000877F816006C0382F3171313011F48E7F9C
:100B3000886021FF0DC0282F2871283119F4877E85
:100B4000816106C0282F2171213111F48E7E8861C8
:100B500094FD877E0895E82FF0E0EE0FFF1FE25925
:100B6000FD4F808191810895089580EA8A95F1F77B
:100B7000089508950C94B9050C94BA050C94B90520
:100B80000C94BE05CF93DF93A1E5B1E045E551E0BC
:100B900061E070E08D91E82FE295EF70F0E021A127
:100BA0008F70EB0102C0CC0FDD1F8A95E2F7CE01FA
:100BB0009C2F9095922391A392A1892B82A34A17EF
:100BC0005B0741F7A6E4B1E041E050E08D91E82FEA
:100BD000E295EF70F0E021A18F70BA0102C0660FBC
:100BE000771F8A95E2F7CB01962F9095922391A3D8
:100BF00092A1892B82A371E0A135B70739F7109232
:100C000067021092660210926F0210926E021092AA
:100C10006902109268021092710210927002109292
:100C20006B0210926A02109273021092720210927A
:100C30006D0210926C02109275021092740284E0A0
:100C40000E94B306DF91CF910C9420036F927F92A4
:100C50008F929F92AF92BF92CF92DF92EF92FF92CC
:100C60000F931F93CF93DF9381E5C82E81E0D82E99
:100C700006E612E09EE6A92E92E0B92E712C882499
:100C80008394912CF60181916F01C82FC295CF708A
:100C9000D0E099A18F70740101C0EE0C8A95EAF73B
:100CA000892F8E2989A38AA16E2C609486218AA31C
:100CB0000E94B505E6E4F1E040E050E020E030E0DD
:100CC0006191A62FA295AF70B0E090968C9190E0C4
:100CD0006F7002C0959587956A95E2F780FD08C010
:100CE000C401042E02C0880F991F0A94E2F702C0C3
:100CF00080E090E0282B392B4F5F5F4F4B30510540
:100D0000F9F689A1682269A28AA1E82AEAA2F80173
:100D1000808191812817390721F03183208381E078
:100D200001C080E0782A0E5F1F4FA016B10609F0BF
:100D3000A9CF272D44E06EE672E086E692E00E949D
:100D4000B4060E942A03872DDF91CF911F910F9146
:100D5000FF90EF90DF90CF90BF90AF909F908F90DB
:100D60007F906F9008950895FF920F931F93CF93F4
:100D7000DF93F82E092F162FD72FC42F222349F0E7
:100D800081E0809398010E941917909397018093B6
:100D90009601809198018823D9F0809196019091D5
:100DA00097010E942517069798F0EF2DF02FA12F9D
:100DB000BD2F80E090E04C2F50E08417950734F46D
:100DC000219131912D933D930196F7CF1092980187
:100DD000DF91CF911F910F91FF9008950C946302C2
:100DE00085988D9A86988E9A8FB185FB882780F991
:100DF0007E9902C090E001C092E0892B80939B0114
:100E00000895E0919B01EE0FEE0FE0939B014FB12F
:100E100045FB882780F990E04FB146FB222720F957
:100E200030E046FF02C022E030E0822B932B8E2B75
:100E300080939B018F70E82FF0E0EB5AFE4F90817A
:100E400080919A01890F80939A0184304CF08091AF
:100E500099018F5F8093990160E080E00E94EE0627
:100E600080919A018D3F4CF480919901815080933B
:100E7000990161E080E00E94EE0680919A018378FA
:100E800087FF03C081508C6F8F5F80939A01089514
:100E9000CF93DF9397FF0DC0FB012281222349F0FE
:100EA000EC010E947307CE019F770E94B4070E9455
:100EB0009D0781E0DF91CF9108958CE090E00E9442
:100EC000532190E0A0E0B0E0809376029093770207
:100ED000A0937802B09379020895609176028CE035
:100EE00090E00C9461210E94761480937A020E9413
:100EF000891480917602813071F048F0823081F05F
:100F00008430A1F486EE0E94F90B88E10DC082EED8
:100F10000E946F0B0BC088E193E00E94C60206C0DE
:100F200082EE0E946F0B87E50E94F90B8FE39CE92C
:100F30000197F1F700C0000008958091760281309A
:100F400039F040F0823031F0843051F488E206C04C
:100F50008CE204C082EE0E94C50B02C00E94F90B15
:100F600080917A020C9486140F931F93CF93DF9392
:100F70008C01CCE0D0E0C8010C2E02C0969587957C
:100F80000A94E2F78F700E942C030E94F90B2497B9
:100F9000CC3F8FEFD80779F7DF91CF911F910F9159
:100FA00008950F931F93CF93DF93EC018B01FB0107
:100FB0008281882361F00E947614CE01815E9C4577
:100FC0008530910520F4809376020E946D07B80168
:100FD000CE01DF91CF911F910F910C9448070F9391
:100FE0001F93CF93DF93C62FD42F122FFC01828142
:100FF0008823C9F060939E010E94191790939D0168
:1010000080939C0180E28C0F883008F057C0C77035
:1010100081E001C0880FCA95EAF7DF91CF911F9157
:101020000F910C940C0C80919E01681330C080913C
:101030009C0190919D010E942517883C910538F5EF
:1010400000E20D0FCD17B9F080E28C0F883040F42C
:10105000C77081E001C0880FCA95EAF70E94130C9F
:10106000083028F581E09D2F977001C0880F9A9570
:10107000EAF70E940C0C812F0E94F90B0830F0F463
:10108000D77081E001C0880FDA95EAF70AC080E2E4
:101090008C0F883098F4C77081E001C0880FCA9522
:1010A000EAF7DF91CF911F910F910C94130C812FD0
:1010B000DF91CF911F910F910C94F90BDF91CF919C
:1010C0001F910F9108959C01CB01233F4CE53407FC
:1010D000F9F078F4283DFCE53F07B9F0293D4CE5EF
:1010E000340711F1273D3C4531F526E241EE61EE32
:1010F0001EC0253FFCE53F0799F070F0263F3C45B8
:10110000D1F427E245EE66EE12C027E245EE0EC0AE
:1011100026E241EE60EE0BC027E245EE64EE07C02A
:1011200026E241EE62EE03C028E241E065EE0E9455
:10113000EF0780E00895FC018281882319F0109266
:101140009E01089581E00895CF93DF93EC01FB01A8
:101150008281882309F41FC1C230FCE5DF0708F44F
:101160001BC1C6319CE5D90738F09E012A5F3C457A
:101170002930310508F010C10E943D15909380027E
:1011800080937F02C031ECE5DE0709F4C3C008F0AC
:1011900041C0C8308CE5D80709F49AC0F0F4C430D7
:1011A000ECE5DE0709F487C068F4C2308CE5D807A7
:1011B00009F477C0C330DC4509F0E3C080917F02B9
:1011C000826076C0C630ECE5DE0709F46EC008F038
:1011D0007BC080917F0288606BC0CC308CE5D807E3
:1011E00009F485C068F4CA30ECE5DE0709F474C080
:1011F00008F079C00E94AA0E80917F02806858C0D2
:10120000CE308CE5D80709F476C008F07FC0809115
:101210007F028BC0CB3FECE5DE0709F44FC018F529
:10122000C3318CE5D80709F47DC078F4C131ECE511
:10123000DE0709F473C0C231DC4509F0A2C00E9488
:10124000AA0E80917F028F7733C0C5318CE5D80715
:1012500009F472C008F486C0CA3FDC4509F091C0A9
:10126000809180023EC0CF3FFCE5DF0709F45FC0FC
:1012700058F4CD3F9CE5D90709F444C008F43FC0B9
:101280008091800282602DC0C130FDE5DF0709F446
:1012900075C008F45DC0C230DD4509F072C080E061
:1012A0006EC080917F02816003C080917F02806167
:1012B00080937F0266C080917F0211C0809180027E
:1012C0008260809380025DC080917F028062F0CF57
:1012D00080917F028064ECCF80917F02886084607F
:1012E000E7CF8160EECF80917F028E7FE1CF80914A
:1012F0007F028D7FDDCF80917F02877FD9CF809164
:10130000800218C0809180028D7FDBCF80917F02A8
:101310008F7ECECF80917F028F7DCACF80917F025A
:101320008F7BC6CF80917F02877F8B7FC1CF8091DB
:1013300080028D7F8E7FC5CF80917F0282FB222726
:1013400020F991E0922790FB82F990FB83F9B0CFCE
:1013500080918002982F909591708E7F892B90FBC1
:1013600081F9AFCF0E94AA0E80917F0287FB2227CE
:1013700020F991E0922790FB87F99ACF81E00E94B3
:10138000CC1580917F02909180020E944E150E94A0
:10139000AA0E80E001C081E0DF91CF910895CF9344
:1013A000DF9386319C4541F5EB010E947614982F1E
:1013B0008A812091000130910101882379F09A7A85
:1013C00081E009F480E080939F01911102C069E2FD
:1013D00001C065E3C9010E9467160AC080919F01A0
:1013E000811102C069E201C065E3C9010E94721661
:1013F0000E94C71480E001C081E0DF91CF91089581
:101400009093A5018093A4010895E091A401F09127
:10141000A501309721F00190F081E02D099480E042
:101420000895E091A401F091A501309799F02091E1
:101430001401222359F020917F0227FF07C0DC010D
:101440002C9111962C93119725E02C930280F38117
:10145000E02D09940895E091A401F091A501309741
:1014600039F022E0DC012C930480F581E02D099411
:1014700008952091A2013091A3012817390771F036
:101480009093A3018093A201E091A401F091A501A2
:10149000309721F00680F781E02D0994089520917E
:1014A000A0013091A1012817390771F09093A10193
:1014B0008093A001E091A401F091A501309721F063
:1014C0000084F185E02D0994089585B7806885BF73
:1014D00085B7806885BF089508950C946C0A0C94B4
:1014E0006D0A0C946C0A0C946C0A0E94650A0E94A6
:1014F000710A0C946F0A81E008950C947B0A0E9493
:1015000010170E94C2050E946B170E94F0060C94EF
:10151000730A7F928F929F92AF92BF92CF92DF9287
:10152000EF92FF920F931F93CF93DF93CDB7DEB768
:101530002A970FB6F894DEBF0FBECDBF0E942606D5
:101540000E947D0A811111C08FEF89838A831B82DB
:101550000E9419178160782F9D838C8349815A815D
:101560006B818D810E943B0B4FC047EAA42E41E066
:10157000B42E00E010E0702E802F0E94AB056C01AD
:10158000F501819091905F0188269926811491043C
:1015900031F40F5F1F4F0430110569F7D5CF8091EB
:1015A000330281FD0E94B40580E0EE24E394F12C27
:1015B00094012E213F21232B09F18E837F82CE209F
:1015C000DF2081E0CD2809F480E088870E94191788
:1015D0008160782F9A8789874E815F8168858A85A7
:1015E0000E943B0B000F111FF801E955FE4F80814F
:1015F0009181E826F926F182E08206C08F5FEE0C29
:10160000FF1C8B30A9F6C5CF0E9401070E94FD1870
:101610000E94050A9091A6018917C9F00E94050A47
:101620008093A6012A960FB6F894DEBF0FBECDBFF9
:10163000DF91CF911F910F91FF90EF90DF90CF90AE
:10164000BF90AF909F908F907F900C9441032A960B
:101650000FB6F894DEBF0FBECDBFDF91CF911F91C3
:101660000F91FF90EF90DF90CF90BF90AF909F9041
:101670008F907F900895CF93DF93CDB7DEB72B97F0
:101680000FB6F894DEBF0FBECDBF4F835887698772
:101690007A878B87DE01119686E0FD0111928A958B
:1016A000E9F785E0FE01379601900D928A95E1F702
:1016B00049815A816B817C818D819E810E94631159
:1016C0002B960FB6F894DEBF0FBECDBFDF91CF9142
:1016D0000895FC01808191810E9437140895CF9371
:1016E000882309F450C0C82F8CEF8C0F813AD0F4B6
:1016F0006C2F80910001909101010E94E7158823D1
:1017000049F06C2F80910001909101010E947216A6
:101710000E94C7146C2F80910001909101010E94DA
:1017200067160CC080E28C0F883058F4C77081E0D7
:1017300001C0880FCA95EAF70E947914CF910C94E2
:10174000C714EBE5EC0FE33040F4F0E0ED56FE4F4C
:10175000808190E0CF910C94390AE8E5EC0FE731F5
:1017600050F4F0E0EE0FFF1FEB59FE4F80819181A6
:10177000CF910C944F0AC03F30F08C2F0E94051877
:10178000CF910C94F218CF910895882389F19CEFA2
:10179000980F913A40F4682F8091000190910101D7
:1017A0000E9472160DC090E2980F983058F487701E
:1017B00091E001C0990F8A95EAF7892F0E947F1462
:1017C0000C94C7149BE5980F933020F480E090E0D0
:1017D0000C94390A98E5980F973120F480E090E056
:1017E0000C944F0A803F20F00E946D180C94F21860
:1017F0000895CF93C82F0E946F0BC93349F42FEF80
:1018000087EE93E0215080409040E1F700C0000057
:101810008C2FCF910C94C50B882321F00E94791452
:101820000C94C7140895882321F00E947F140C940F
:10183000C7140895CF92DF92EF92FF920F931F93F8
:10184000CF93DF937C01062FC72FFC0115811295E2
:101850001F70D281D1110E9499140E946F148823A5
:1018600099F0DD2389F08C2F807F803421F080E295
:10187000800F883048F082E00E9411150E946F149A
:1018800091E0D82ED92601C0D12CCC2EC2948FE065
:10189000C8228C2D90E0FC01EA5AFF4F0C943921AC
:1018A0008C2F807FCF70882311F0C295C07FDD23FD
:1018B00099F0CC2309F48DC180E2800F883010F0BC
:1018C000011104C08C2F0E94791403C08C2F0E9438
:1018D0008C140E94C7147DC1802F0E94C50BCC239D
:1018E00009F49CC180E2800F883010F0011104C01F
:1018F0008C2F0E947F1403C08C2F0E9492140E9490
:10190000C7148CC18C2F807FCF70803211F0C295AC
:10191000C07F002319F00130C9F022C0DD2371F02F
:10192000112341F0113031F40E94AC148C2B0E9431
:10193000B41474C10E94AC148C2B1DC0112319F077
:10194000113009F46BC10E94BD1425C0DD2321F0C4
:10195000163008F063C10EC0153008F05FC11BC01F
:10196000DD2361F0112331F0F701858180FF31C162
:101970008F7085838C2F0E940C0C50C1112359F05D
:10198000093309F037C1FFEF27EE83E0F150204023
:101990008040E1F72DC18C2F0E94130C3FC18C2F8A
:1019A00086958695837019F0813061F037C1DD230B
:1019B00021F0802F9C2F937002C080E090E00E9465
:1019C000390A34C1DD2321F0802F9C2F937002C08F
:1019D00080E090E00E944F0A29C1802FDD2319F09A
:1019E0000E94051802C00E946D180E94F2181EC1C4
:1019F0008C2F837009F045C0D11114C1402F42953E
:101A000046954770440F440F602F6F70862F90E00B
:101A1000A0E0B0E0042E04C0880F991FAA1FBB1FCE
:101A20000A94D2F704FF10C00FE010E020E030E08D
:101A300004C0000F111F221F331F4A95D2F70095D3
:101A400010952095309503C000E010E09801C695F0
:101A5000C695C370BC01CD01602B712B822B932BDB
:101A6000C23049F058F4C13019F00E94B412DAC003
:101A70000E94A212D7C00E94C612D4C00E94A01217
:101A8000D1C0DD2319F08C2F817001C08695882389
:101A900009F4C8C0402F429546954770440F440F43
:101AA000602F6F70862F90E0A0E0B0E0042E04C09D
:101AB000880F991FAA1FBB1F0A94D2F704FF10C0FA
:101AC0000FE010E020E030E004C0000F111F221FE3
:101AD000331F4A95D2F7009510952095309503C095
:101AE00000E010E09801C695C695C370BC01CD0119
:101AF000602B712B822B932BC23049F058F4C130EC
:101B000019F00E9479138EC00E9467138BC00E9447
:101B10008B1388C00E94DA1285C0CF70DD2339F0A4
:101B20008C2F0E940013802F0E940C0C7BC0802FF2
:101B30000E94130C8C2F0E94211374C0023F01F1EC
:101B400028F4003F41F0013FA1F03FC0033FF9F00E
:101B5000043F39F13AC0DD2341F0153008F05EC092
:101B60008C2F8F710E94461359C0163008F056C052
:101B7000F7CFDD2339F08C2F8F710E9400134EC0F8
:101B8000DD23C9F38C2F8F710E94211347C0DD2301
:101B900029F08C2F8F710E94EB1240C00E94E61238
:101BA0003DC0DD2349F0CF718C2F0E94001363E00C
:101BB0008C2F0E94FC1432C081E00E94111512305B
:101BC00068F182E00E94111529C0DD2331F0112354
:101BD00091F2802F0E946F0B21C0112399F20933DB
:101BE00049F49FEFE7EEF3E09150E040F040E1F779
:101BF00000C00000802F0E94C50B10C04C2F4F70FA
:101C0000602FC7010E949D030E9411120FC04C2F2C
:101C10004F70602FC7010E94A00308C088EF8C0D91
:101C2000843020F40E94050A0E944103DD20C9F09F
:101C30000E946B1480FD15C0F70112820E9465148A
:101C40000E940013C7010E94520E0E946514DF918A
:101C5000CF911F910F91FF90EF90DF90CF900C9458
:101C60002113DF91CF911F910F91FF90EF90DF90A3
:101C7000CF9008950F931F93CF93DF93EC0168816A
:101C800079818A810E9442148C010E949D130E94D6
:101C90008E12B801CE010E941A0CDF91CF911F91D4
:101CA0000F910895CF93DF93EC01988189812B8167
:101CB0003C81232B31F08F3F31F481E09F3F19F4B9
:101CC00003C081E001C080E080FD19C0CE010E9408
:101CD0005A0381110CC00E946F14882381F08A81FD
:101CE000882369F082E0DF91CF910C941115CE0129
:101CF0000E943A0ECE01DF91CF910C941503DF9133
:101D0000CF910895882321F00E948C140C94C7145D
:101D10000895882321F00E9492140C94C71408950A
:101D20000E9499140E94A9140E94C7140E941C1AB0
:101D30000E94F21880E090E00E94390A80E090E072
:101D40000C944F0A80910001909101010E947D1630
:101D50000C94900E0E9489140C94A20EE92FE29527
:101D6000EF704E2F50E0FA013297EE30F105B0F4EB
:101D7000EA59FF4F0C943921803F91F018F4883EC6
:101D800068F40EC0843F51F40BC0883E48F0813F98
:101D900029F406C093FB882780F9089580E0089510
:101DA00081E008950E9437140E94AE0E0895CF93EB
:101DB000DF9300D000D01F92CDB7DEB70F900F9009
:101DC0000F900F900F90DF91CF910895CF93DF93F5
:101DD00000D000D000D0CDB7DEB726960FB6F8946D
:101DE000DEBF0FBECDBFDF91CF9108951F93CF937C
:101DF000DF93C091B00116E08091B101C81799F04E
:101E0000D0E01C9FF0011D9FF00D1124EE54FE4FF9
:101E10004081518162817381848195810E94E60EA7
:101E20002196C770E9CFDF91CF911F91089540911E
:101E3000E2015091E3016091E4017091E50180912C
:101E4000E6019091E7010C94E60E0F931F93CF9358
:101E5000DF938091E70182958F7009F05DC08091DA
:101E6000E401882309F458C08091B0011091B101B8
:101E70006091E2017091E301C091E501D091E6012A
:101E800091E06F3F09F090E0292F06E0811709F4F7
:101E900043C0209721F07F3F21F030E003C031E0C4
:101EA00001C0322F90E030FD34C0089FF001099F3F
:101EB000F00D1124DF01AE54BE4F11963C911197E5
:101EC000371327C03C91361324C012963C911297C9
:101ED00031111FC013964D915C9114974C1B5D0BF3
:101EE000483C5105B0F48091E7018F708061809388
:101EF000E701E954FE4F80818F708061808382EE1C
:101F000091E00E94520EDF91CF911F910F910C949E
:101F1000F60E01968770BACFDF91CF911F910F9186
:101F200008959F92AF92BF92CF92DF92EF92FF926D
:101F30000F931F93CF93DF93CDB7DEB761970FB6A3
:101F4000F894DEBF0FBECDBF8C0185E0F801DE0145
:101F50001D9601900D928A95E1F7F801408151811B
:101F6000E2809091E2016091E3012091E5013091DE
:101F7000E6012115310531F06F3F31F481E09F3FDB
:101F800019F403C081E001C080E0F82FF1709F2EAA
:101F900080FD46C1F801A380B48082EEC82E81E0A6
:101FA000D82EF090E401F501E21BF30BFF2009F4B9
:101FB000DFC08091E701E83CF10508F09BC0282FC5
:101FC000207F09F052C0561313C0491311C0FE2CD4
:101FD000E1100EC08F7080618093E7010E94170F9F
:101FE000C6010E94520E8091E701F801858358C115
:101FF000AB2831F05F3F31F481E04F3F19F403C06B
:1020000081E001C080E080FD03C081E08E2502C038
:1020100080E090E0F82FF170FF2E80FF1CC08091CF
:10202000B0012091B10136E0821709F417C190E0A8
:10203000389FF001399FF00D1124EE54FE4F61815D
:10204000561306C06081461303C06281E61203C0C6
:1020500001968770E9CFFE2CEE2009F421C1809112
:10206000E70181608093E7015AC0561306C0491307
:1020700004C0E11002C0F8019FC04D875E878D85C6
:102080009E850E94D20E882379F1EE2069F120917D
:10209000E701822F82958F7090E0029774F0809113
:1020A000E2019091E30198878F831986BB86AA8607
:1020B0002C87CE0107960E94520E86E0F801A2EE10
:1020C000B1E001900D928A95E1F70E94250F0E94E0
:1020D000170F0DC0561729F14D875E878D859E8598
:1020E0000E94D20E81112CC0C8010E94520EFF2402
:1020F000F394D6C0282F207F69F77A2DB98AA88A51
:102100006E2D89890E94D70E82EE91E00E94520EB8
:1021100086E0F60111928A95E9F70E94170FF12CDB
:10212000BFC04913D9CFE110D7CFF8018583C801CB
:102130000E94520E86E0F60111928A95E9F7B0C02E
:10214000EE2091F22091E701822F82958F7090E02E
:1021500002970CF4B2CF8091E2019091E3019A834F
:1021600089831B82BD82AC822E83CE010196A3CFD0
:10217000E83CF10508F047C0FE2CEE2009F4B4CF8E
:10218000561330C049132EC02091E70120FD21C015
:10219000822F82958F70482F50E041155105C9F06C
:1021A000F80125834F30510541F08F5F982F9295AC
:1021B000907F822F8F70892B8583C8010E94520ED9
:1021C00086E0F801A2EEB1E001900D928A95E1F768
:1021D00042C086E0F801A2EEB1E001900D928A952E
:1021E000E1F75EC04D875E878D859E850E94D20E89
:1021F000811163CF8091E70181608093E701C8017D
:102200000E94520E4DC07A2DB98AA88A6E2D8989F6
:102210000E94D70E86E0F60111928A95E9F71BC05D
:10222000EE2009F461CF4D875E878D859E850E94E3
:10223000D20EF82E882309F457CF86E0F801A2EEDB
:10224000B1E001900D928A95E1F782EE91E00E9453
:10225000690B0E94250F0E94170F22C04D875E87D1
:102260008D859E850E943714292F22952F7022304C
:1022700028F49F7039F0811105C00BC0243028F478
:102280009F7049F4805E883020F0C8010E94520E91
:102290009F2CF92C05C0F8019581907F99F7F9CF13
:1022A0008F2D61960FB6F894DEBF0FBECDBFDF91C4
:1022B000CF911F910F91FF90EF90DF90CF90BF9043
:1022C000AF909F9008951F93CF93DF93CDB7DEB764
:1022D0002C970FB6F894DEBF0FBECDBF4F83588743
:1022E00069877A878B879C87CE0107960E94910F1A
:1022F0008823D1F09F8188852A853B85232B31F067
:102300008F3F31F481E09F3F19F403C081E001C0A9
:1023100080E080FD47C04F81588569857A858B852F
:102320009C850E94E60E3EC086E0FE013796DE01E7
:10233000119601900D928A95E1F7FF81E8856A85F3
:102340007B856115710531F0EF3F31F481E0FF3F8E
:1023500019F403C081E001C080E080FD23C020911A
:10236000B10130E0C9010196877099274091B00111
:1023700050E084179507F1F1F983EA837D836C833C
:1023800096E0929FD001939FB00D1124AE54BE4FA2
:10239000FE01319601900D929A95E1F78093B1017B
:1023A0000E94F60E16E08091B0019091B10189175C
:1023B00071F1189FC00111248E549E4F0E94910FFD
:1023C000882329F1E091B0011E9FF0011124EE5401
:1023D000FE4F4081518162817381848195810E9489
:1023E000E60E8091B00190E0019687709927809366
:1023F000B001D9CF0E94AA0E1092B1011092B00183
:10240000E2EEF1E086E0DF011D928A95E9F72C9675
:102410000FB6F894DEBF0FBECDBFDF91CF911F91F5
:102420000895EF92FF920F931F93CF93DF938C0148
:10243000892B09F46CC0F12CEE24E394E801219679
:10244000F8018491843740F4843008F051C0813021
:1024500081F0823019F15BC0853709F444C0A8F1DE
:102460009CE7980F903708F052C08F770E94C50BF9
:1024700041C00E5F1F4FFE01849190E2980F98308B
:1024800050F48770FE2D01C0FF0F8A95EAF78F2F59
:102490000E949C1414C00E946F0B2DC00E5F1F4F32
:1024A000FE01849190E2980F983060F48770FE2DC1
:1024B00001C0FF0F8A95EAF78F2F0E94A2140E9495
:1024C000C71419C00E94C50B16C00E5F1F4FFE0136
:1024D000C491CC2381F08FE99FE00197F1F700C010
:1024E0000000C150F6CF0E5F1F4FFE01F49003C0F5
:1024F0000E946F0B8E018F2D882309F49FCFEFE987
:10250000FFE03197F1F700C000008150F5CFDF9177
:10251000CF911F910F91FF90EF9008950895089526
:102520000C948F120C9490120E94921260930A02E3
:1025300070930B0280930C0290930D020C94900EFA
:102540000C9494120F931F9300910A0210910B02A6
:1025500020910C0230910D02602B712B822B932B5A
:102560001F910F910C9494120F931F9300910A02E4
:1025700010910B0220910C0230910D026023712307
:10258000822393231F910F910C9494120F931F9306
:1025900000910A0210910B0220910C0230910D0261
:1025A00060277127822793271F910F910C94941213
:1025B0000C948F120E94D812609306027093070247
:1025C00080930802909309020C94900E60E070E0F2
:1025D000CB010C94DA120F931F9341E050E060E0BE
:1025E00070E08A019B0104C0000F111F221F331FDE
:1025F0008A95D2F7C901B8011F910F910C94DA1294
:102600000F931F9341E050E060E070E004C0440F7E
:10261000551F661F771F8A95D2F780910602909109
:102620000702A0910802B09109028A019B01082BC0
:10263000192B2A2B3B2BC901B8011F910F910C9428
:10264000DA120F931F9341E050E060E070E004C0A5
:10265000440F551F661F771F8A95D2F740955095F6
:10266000609570958091060290910702A0910802F2
:10267000B09109028A019B01082319232A233B23D5
:10268000C901B8011F910F910C94DA120F931F9397
:1026900041E050E060E070E004C0440F551F661F49
:1026A000771F8A95D2F78091060290910702A09138
:1026B0000802B09109028A019B01082719272A27DD
:1026C0003B27C901B8011F910F910C94DA120F93A7
:1026D0001F93009106021091070220910802309189
:1026E0000902602B712B822B932B1F910F910C945D
:1026F000DA120F931F9300910602109107022091A6
:1027000008023091090260237123822393231F91D1
:102710000F910C94DA120F931F93009106021091FF
:102720000702209108023091090260277127822751
:1027300093271F910F910C94DA1208952BE0929F2A
:10274000800D1124E82FE695E695E695877051E017
:1027500001C0550F8A95EAF785E0E89FF001112442
:10276000E851FE4F20E030E070E04081CB01022EC6
:1027700002C0969587950A94E2F781708195842727
:102780008523842781932F5F3F4F2530310569F7DB
:1027900008952BE0929F800D1124682F6695669511
:1027A0006695982F977085E0689FB001112440E0EE
:1027B00050E080E0FB01E40FF51FE851FE4F20815F
:1027C00030E0092E02C0369527950A94E2F7217071
:1027D0003327042E01C0220F0A94EAF7822B4F5FA1
:1027E0005F4F4530510531F70895BF92CF92DF9288
:1027F000EF92FF920F931F93CF93DF938C01C090C2
:102800000602D0900702E0900802F0900902809141
:102810000A0290910B02A0910C02B0910D02C82AFD
:10282000D92AEA2AFB2ACFE1D0E0D701C6010C2E33
:1028300004C0B695A795979587950A94D2F780FD21
:1028400004C0219790F7B12C07C0BC2EB8018C2F83
:102850000E94BC030197A9F38B2DDF91CF911F91AB
:102860000F91FF90EF90DF90CF90BF900895CF939E
:10287000DF93EC010E94F513BE010E94BC03DF91BF
:10288000CF9108951F93CF93DF93EB019091AF0108
:10289000992321F0CB010E94371413C0882349F0FB
:1028A000CB010E94F513182F682FCE010E949E13B2
:1028B00004C0CB010E94C913182FBE01812F0E94B2
:1028C000BC03DF91CF911F91089580910E028595F1
:1028D00085958595089580910E0287700895909151
:1028E0000E02977081E009F480E008958091320231
:1028F000089590913202892B809332020895809539
:10290000909132028923809332020895809332029B
:10291000089510923202089590913102892B80938C
:10292000310208958095909131028923809331027C
:10293000089510923102089590913002892B80936E
:10294000300208958095909130028923809330025F
:10295000089510923002089580910F02089508950D
:102960000C94AF140C94B01490910F02981721F0AE
:1029700080930F020C94B214089580910F02882363
:1029800029F010920F0280E00C94B2140895E091A7
:102990000001F0910101809132028083E0910001F9
:1029A000F0910101908180913102892B8083E09127
:1029B0000001F0910101908180913002892B808388
:1029C00080910F02882381F0E0910001F0910101D4
:1029D0009081892B808380910001909101010E9458
:1029E000D11581110E94BD148091000190910101C7
:1029F0000C94110A0C94AF1498E0899F9001112453
:102A0000262B20930E020E94001380910E028595C2
:102A1000859585950C94FA1410920E0280E00C9422
:102A2000FA1420910E028095822380930E02982F33
:102A3000977079F430E0482F082E000C550B2417BE
:102A4000350739F08595859585950E9421130C945D
:102A50000C15089580E090E00E945B2121E08C3EFF
:102A60009E4F09F020E0822F089582E090E00C94C0
:102A7000532183E090E00C945321CF9384E090E0C5
:102A80000E945321C82F81E290E00E9453212C2FF5
:102A900030E0A901582BCA01CF910895CF93C92FD7
:102AA000682F84E090E00E9461216C2F81E290E029
:102AB000CF910C946121AB01BC018FE090E00C94AC
:102AC0007321AB01BC0183E190E00C94732160E0C1
:102AD00070E0CB010C94611560E070E0CB010E94C6
:102AE0005B150C9467156CEE7EEF80E090E00E9421
:102AF0007F2160E082E090E00E94612160E083E05D
:102B000090E00E94612110920A0210920B02109232
:102B10000C0210920D0260E084E090E00E946121BE
:102B200060E081E290E00E94612160E085E090E059
:102B30000E94612160E086E090E00E9461216FEFD9
:102B400087E090E00E94612140E050E0BA0188E017
:102B500090E00E94732160E08DE090E00E9461218E
:102B600040E050E0BA0188E190E00E94732160E00B
:102B700087E190E00E94612140E050E0BA018CE1E1
:102B800090E00E94732160E080E290E00E94612169
:102B90000C946C150C947315682F8EE090E00C94D7
:102BA0006121FC01329680911401882331F08091DB
:102BB0007F0287FF02C09EE101C096E080E0915055
:102BC00028F021912223D9F38F5FF9CF089566234E
:102BD00051F1209114012223E9F020917F0227FF77
:102BE00019C0462F4695469546954E31E0F46770DC
:102BF00021E030E002C0220F331F6A95E2F7FC01AA
:102C0000E40FF11D828190E02823392381E0232BFA
:102C100069F409C0FC01329608962191621729F0E7
:102C2000E817F907D1F780E0089581E008959C0145
:102C3000FC0132969FEF80E04191461789F09F3F5B
:102C400019F4411101C0982F8F5F8630A9F79F3F7B
:102C500039F0F901E90FF11D97FDFA9562830895A6
:102C600008959C012A5F3F4FFC014281461301C039
:102C70001282019682179307B9F70895262F269599
:102C8000269526952E3168F4FC01E20FF11D677040
:102C900021E030E001C0220F6A95EAF78281282BFB
:102CA00022830895262F2695269526952E3170F499
:102CB000FC01E20FF11D677021E030E001C0220F3E
:102CC0006A95EAF72095828128232283089520912E
:102CD0001401222329F020917F0227FD0C943E1637
:102CE0000C94171620911401222329F020917F02C1
:102CF00027FD0C9452160C94311620911401FC01FE
:102D00003296222331F080917F0287FF02C08EE14C
:102D100001C086E0DF011D928A95E9F708950895C4
:102D20000C948F160C948F16CF930E9492160E94CB
:102D300026060E949016C0E08C2F0E94AB05892BBE
:102D400029F4CF5FC430C1F780E001C081E0CF91AA
:102D500008950C948F160C94A9160E94AB168091BE
:102D60008502843049F11092340220E488E190E039
:102D70000FB6F894A895809360000FBE2093600072
:102D800080E00E9441030E94AB1683B7817F84607C
:102D900083BF83B7816083BF7894889583B78E7F24
:102DA00083BF0FB6F894A8958091600088618093E6
:102DB0006000109260000FBE08950C948F160E9460
:102DC000AA0E0E94050A0E9441030C94DD161F9270
:102DD0000F920FB60F9211248F939F93AF93BF93CF
:102DE00080913402811113C080917B0290917C020A
:102DF000A0917D02B0917E024196A11DB11D8093EC
:102E00007B0290937C02A0937D02B0937E02BF91DF
:102E1000AF919F918F910F900FBE0F901F901895BB
:102E200082E084BD93E095BD9AEF97BD80936E00DC
:102E300008952FB7F89480917B0290917C02A09125
:102E40007D02B0917E022FBF08959C014FB7F89488
:102E500080917B0290917C02A0917D02B0917E02D4
:102E60004FBF821B930B089578941F920F920FB659
:102E70000F9211248F939F93AF93BF9380917B0206
:102E800090917C02A0917D02B0917E020196A11DDD
:102E9000B11D80937B0290937C02A0937D02B0933E
:102EA0007E02BF91AF919F918F910F900FBE0F90B7
:102EB0001F90189587E797E7909301088093000883
:102EC0009AE088E10FB6F894A895809360000FBE51
:102ED00090936000FFCF0E942A15811102C00E94CA
:102EE000CA150E943515809333020E943D159093B8
:102EF000800280937F020E943915682F70E080E085
:102F000090E00C94A01280913C0280FF0BC0609175
:102F1000070185E0689FB001112475956795759547
:102F200067952BC081FF09C06091070185E0689F0C
:102F3000B00111247595679520C082FF07C060918C
:102F4000070185E0689FB001112417C090913B02F2
:102F50009923D1F060910601961788F72091070117
:102F600085E0289F90011124929FA001939F500D0E
:102F7000112470E0CA010E9425216038710540F4D7
:102F80006115710519F406C065E070E0862F08959B
:102F90008FE7089581E0089580913C0280FF08C08A
:102FA0006091030170E0759567957595679521C0EF
:102FB00081FF06C06091030170E07595679519C0A7
:102FC00082FF04C06091030170E010C090913B0249
:102FD000992399F0609102019617A0F7809103015F
:102FE000899FC001112470E00E942521603871057D
:102FF00040F46115710519F406C061E070E0862F98
:1030000008958FE7089581E00895803F21F40E949C
:103010008317819504C0813F29F40E948317809310
:1030200040020895823F21F40E948317819504C0D5
:10303000833F29F40E94831780933F020895893FBC
:1030400019F40E94CC1705C08A3F31F40E94CC17B6
:1030500081958093410208958B3F21F40E94CC1703
:10306000819504C08C3F29F40E94CC1780934202C2
:103070000895843F21F480913E02816017C0853F0E
:1030800021F480913E02826011C0863F21F480913C
:103090003E0284600BC0873F21F480913E0288602D
:1030A00005C0883F31F480913E02806180933E02EA
:1030B00008958D3F21F480913C0281600BC08E3FCA
:1030C00021F480913C02826005C08F3F29F48091F9
:1030D0003C02846080933C020895803F39F48091E3
:1030E000400287FF6CC01092400269C0813F29F402
:1030F000809140021816BCF362C090913F02823F5B
:1031000029F497FF5CC010923F0259C0833F19F425
:103110001916CCF354C0893F41F48091410218162E
:103120000CF04DC0109241024AC08A3F29F48091B0
:10313000410287FF44C0F6CF8B3F39F480914202B1
:1031400087FF3DC0109242023AC08C3F29F4809123
:1031500042021816BCF333C0843F21F480913E0232
:103160008E7F17C0853F21F480913E028D7F11C074
:10317000863F21F480913E028B7F0BC0873F21F474
:1031800080913E02877F05C0883F31F480913E02E6
:103190008F7E80933E0213C08D3F21F480913C02CC
:1031A0008E7F0BC08E3F21F480913C028D7F05C045
:1031B0008F3F29F480913C028B7F80933C02809169
:1031C0003F0281110EC08091400281110AC080919E
:1031D0004102811106C080914202811102C0109209
:1031E0003B0208958DE392E00E942B0A0E9419177A
:1031F00090933A02809339020895CF93DF9300D0E1
:1032000000D000D0CDB7DEB786E0EDE3F2E0DE011E
:10321000119601900D928A95E1F780913F028111FC
:1032200005C080914002882309F47AC0809137025A
:10323000909138020E942517AC0190913B0299238E
:1032400039F02091080130E02417350758F068C0A4
:10325000209109018AE0289F900111242417350745
:1032600018F05EC09F3F19F09F5F90933B02109251
:1032700041021092420280913F02181624F40E94EB
:10328000831780933F0280913F0287FF05C00E9411
:103290008317819580933F0280914002181624F491
:1032A0000E948317809340028091400287FF05C0EF
:1032B0000E94831781958093400230913F0233230F
:1032C000E1F0209140022223C1F045EB3403C0011C
:1032D0001124992319F090933F0203C081E0809359
:1032E0003F0235EB2303C0011124992319F0909379
:1032F000400203C081E0809340020E94F218809156
:10330000390290913A02909338028093370286E016
:10331000FE013196ADE3B2E001900D928A95E1F79E
:1033200080914102811105C080914202882309F4F5
:103330007AC080913502909136020E942517AC0127
:1033400090913B02992339F02091040130E0241739
:10335000350758F068C0209105018AE0289F900148
:1033600011242417350718F05EC09F3F19F09F5FA6
:1033700090933B0210923F021092400280914102D2
:10338000181624F40E94CC178093410280914102C8
:1033900087FF05C00E94CC178195809341028091E0
:1033A0004202181624F40E94CC17809342028091A6
:1033B000420287FF05C00E94CC178195809342028C
:1033C000309141023323E1F0209142022223C1F0E7
:1033D00045EB3403C0011124992319F09093410265
:1033E00003C081E08093410235EB2303C001112427
:1033F000992319F09093420203C081E08093420226
:103400000E94F2188091390290913A02909336020C
:103410008093350286E0FE013196ADE3B2E0019083
:103420000D928A95E1F726960FB6F894DEBF0FBE8F
:10343000CDBFDF91CF910895EDE3F2E086E0DF01AB
:103440001D928A95E9F710923B0210923C02089572
:10345000809163020895CF93DF9300D01F92CDB780
:10346000DEB790918502943019F589837B836A8356
:1034700082E08093E9008FEF9091E800815095FD04
:1034800006C095ED9A95F1F700008111F5CF809176
:10349000E80085FF0DC040E050E063E070E0CE0141
:1034A00001960E94871C8091E8008E778093E80047
:1034B0000F900F900F90DF91CF910895CF93DF93EE
:1034C000EC010E946A1C823011F0843031F4BE019C
:1034D00084E0DF91CF910C942B1ADF91CF91089566
:1034E000BC0183E00C942B1ACF93DF93EC010E9474
:1034F0006A1C823011F08430F9F482E08093E90094
:103500008FEF9091E800815095FD06C095ED9A955A
:10351000F1F700008111F5CF8091E80085FF0CC024
:1035200040E050E066E070E0CE010E94871C809190
:10353000E8008E778093E800DF91CF910895CF93D4
:10354000DF93EC010E946A1C823011F08430D9F5BF
:1035500080911401882339F080917F0287FF03C096
:1035600060E282E002C068E081E08093E9008FEFD2
:103570009091E800815095FD06C095ED9A95F1F780
:1035800000008111F5CF8091E80085FF1CC080917B
:103590001401811105C040E050E068E070E003C014
:1035A00070E040E050E0CE010E94871C8091E8006E
:1035B0008E778093E80080E2FE01A3E4B2E0019000
:1035C0000D928A95E1F7DF91CF9108958091840261
:1035D000811109C00E94181E0E94751E8091E20090
:1035E00084608093E2000895109284020895089503
:1035F00008950C94DF1642E061EC81E00E94911D79
:1036000042E261EC82E00C94911D8091870283304C
:1036100009F460C030F4813071F0823009F499C04F
:1036200008958A3009F485C08B3009F46BC0893065
:1036300009F0A7C020C080918602813A09F0A1C09C
:103640008091E800877F8093E80080918A029091C2
:103650008B02892B21F460E283E492E003C060E0F6
:1036600080E090E070E00E94D21C8091E8008B77AF
:103670008093E800089580918602813209F081C02C
:1036800080918A0290918B02029708F07AC0809113
:10369000E800877F8093E8008091E80082FD05C004
:1036A000809185028111F8CF6CC02091F300809148
:1036B000F20090E0922B029729F48091F1008B7F29
:1036C000813021F48091F100809363028091E800C1
:1036D0008B7753C080918602813A09F052C0809165
:1036E0008A0290918B02892B09F04BC08091E800EF
:1036F000877F8093E8008091E80080FFFCCF809175
:10370000140136C0809186028132D9F580918A02F7
:1037100090918B02892BA9F58091E800877F809397
:10372000E8000E94C61D80918802809314010C94C9
:10373000AA0E80918602813221F58091E800877F70
:103740008093E8000E94C61D8091890280936402E4
:10375000089580918602813AA1F48091E800877FE4
:103760008093E8008091E80080FFFCCF80916402A4
:103770008093F1008091E8008E778093E8000C94AC
:10378000C61D089584B7877F84BF0FB6F894A895A7
:1037900080916000886180936000109260000FBE8D
:1037A00090E080E80FB6F8948093610090936100F8
:1037B0000FBE0E94750A0E94181E0E94751E8091FD
:1037C000E20084608093E20078940E940A210E94C3
:1037D0007F0A8AE091E00E94000A8091850285308C
:1037E00069F40E94AD16809183028823B1F30E9490
:1037F0009416882391F30E94711CEFCF0E94890ACE
:10380000ECCF0C94031C292F332723303105C9F04A
:1038100060F42130310581F02230310509F04AC0D1
:103820008BE390E02AEE32E049C02132310511F1FC
:103830002232310579F13EC082E190E025E233E0A9
:103840003DC099278130910561F040F082309105AB
:1038500059F0039779F5E4EBF2E008C0E6EEF2E008
:1038600005C0E6EDF2E002C0EAEBF2E0849190E000
:103870009F0124C06115710541F061307105D1F4DB
:1038800089E090E025E133E019C089E090E02CEF79
:1038900032E014C06115710541F06130710551F4D9
:1038A0008CEB90E027E333E009C080E490E023EF65
:1038B00033E004C080E090E020E030E0FA013183A2
:1038C0002083089580918502843011F081E008956D
:1038D00082E0089580916502811102C00C94621CFF
:1038E000089580E189BD82E189BD09B400FEFDCF64
:1038F0008091D8008F7D8093D8008091E000826015
:103900008093E0008091E00081FDFCCF0895CF928C
:10391000DF92EF92FF920F931F93CF93DF93EC010F
:103920008B017A010E94E51D811133C0E114F1047D
:1039300039F0F70180819181081B190BC80FD91F3D
:10394000C12CD12C0115110519F18091E80085FDDC
:1039500016C08091E8008E778093E800E114F104AE
:1039600049F0F70180819181C80ED91ED182C082B1
:1039700085E00FC00E94E51D882321F30AC08991CC
:103980008093F10001501109FFEFCF1ADF0ADACF5F
:1039900080E0DF91CF911F910F91FF90EF90DF902A
:1039A000CF90089520918C0230918D022617370711
:1039B00048F06115710539F42091E8002E772093C5
:1039C000E80001C0B901FC0120E06115710579F141
:1039D000809185028823F1F18530F1F18091E80032
:1039E00083FD3CC08091E80082FD2EC08091E800FC
:1039F00080FFEBCF2091F3008091F20090E0922BBA
:103A00006115710551F08830910538F421912093AA
:103A1000F100615071090196F3CF21E0089709F098
:103A200020E08091E8008E778093E800CECF2111CE
:103A3000CFCF0AC080918502882361F0853061F084
:103A40008091E80083FD0AC08091E80082FFF2CFF8
:103A500080E0089582E0089583E0089581E008956C
:103A600020918C0230918D022617370748F061159E
:103A7000710539F42091E8002E772093E80001C009
:103A8000B901FC0120E06115710591F18091850279
:103A9000882309F440C0853009F43FC08091E800D4
:103AA00083FD3DC08091E80082FD2FC08091E80039
:103AB00080FFE9CF2091F3008091F20090E0922BFB
:103AC0006115710559F08830910540F424912093D7
:103AD000F1003196615071090196F2CF21E008970B
:103AE00009F020E08091E8008E778093E800CBCF4A
:103AF0002111CCCF0AC080918502882361F08530E6
:103B000061F08091E80083FD0AC08091E80082FFA7
:103B1000F2CF80E0089582E0089583E0089581E087
:103B20000895982F973068F59093E900981739F029
:103B30007091EC002091ED005091F00003C0242F13
:103B4000762F50E021FD02C09F5FECCF3091EB005B
:103B50003E7F3093EB003091ED003D7F3093ED00E0
:103B60003091EB0031603093EB007093EC002093C8
:103B7000ED005093F0002091EE0027FDE5CF80E0AE
:103B800008958F708093E90081E008958091860206
:103B900087FF11C08091E80082FD05C080918502F9
:103BA0008111F8CF11C08091E8008B770BC0809114
:103BB0008502882349F08091E80080FFF8CF80914A
:103BC000E8008E778093E80008952091E40030911A
:103BD000E50095E64091EC00842F817040FF23C002
:103BE0008091E80080FD1DC080918502882399F0B6
:103BF000853099F08091EB0085FD11C04091E40083
:103C00005091E5002417350729F3915011F09A01DE
:103C1000E1CF84E0089582E0089583E0089581E093
:103C2000089580E008954091E80042FFDDCF0895B7
:103C30000E94861E0E948E1EE0EEF0E08081816070
:103C40008083E8EDF0E080818F77808319BCA7ED59
:103C5000B0E08C918E7F8C9380818F7E80831092D8
:103C6000840208950F931F93CF93DF930E94861EC3
:103C70000E948E1EC8EDD0E088818F77888388816E
:103C80008068888388818F7D888319BC1092850223
:103C900010928102109283021092820200EE10E0D4
:103CA000F80180818B7F808388818160888342E0F6
:103CB00060E080E00E94911DE1EEF0E080818E7F67
:103CC0008083E2EEF0E08081816080838081886083
:103CD0008083F80180818E7F8083888180618883E2
:103CE000DF91CF911F910F910895E8EDF0E0808171
:103CF0008F7E8083E7EDF0E080818160808384E0C7
:103D000082BF81E0809384020C94321EE8EDF0E0E3
:103D100080818E7F80831092E20008951092DA00F5
:103D20001092E10008951F920F920FB60F92112486
:103D30002F933F934F935F936F937F938F939F93B3
:103D4000AF93BF93EF93FF938091E10082FF0BC08D
:103D50008091E20082FF07C08091E1008B7F809319
:103D6000E1000E9409218091DA0080FF1FC080914C
:103D7000D80080FF1BC08091DA008E7F8093DA002C
:103D80008091D90080FF0DC080E189BD82E189BDAD
:103D900009B400FEFDCF81E0809385020E94E61AFF
:103DA00005C019BC109285020E94F41A8091E100AE
:103DB00080FF19C08091E20080FF15C08091E20071
:103DC0008E7F8093E2008091E20080618093E20028
:103DD0008091D80080628093D80019BC85E08093E0
:103DE00085020E94F81A8091E10084FF30C0809122
:103DF000E20084FF2CC080E189BD82E189BD09B465
:103E000000FEFDCF8091D8008F7D8093D8008091F7
:103E1000E1008F7E8093E1008091E2008F7E8093AD
:103E2000E2008091E20081608093E2008091810253
:103E3000882311F084E007C08091E30087FD02C071
:103E400081E001C083E0809385020E94F91A80918D
:103E5000E10083FF29C08091E20083FF25C08091AB
:103E6000E100877F8093E10082E0809385021092D9
:103E700081028091E1008E7F8093E1008091E200D9
:103E80008E7F8093E2008091E20080618093E20067
:103E900042E060E080E00E94911D8091F000886027
:103EA0008093F0000E94F71AFF91EF91BF91AF91BC
:103EB0009F918F917F916F915F914F913F912F9142
:103EC0000F900FBE0F901F9018951F920F920FB674
:103ED0000F9211242F933F934F935F936F937F9390
:103EE0008F939F93AF93BF93CF93DF93EF93FF9302
:103EF000C091E900CF708091EC00D82FD17080FD87
:103F0000D0E81092E9008091F000877F8093F00064
:103F100078940E94A91F1092E9008091F0008860B7
:103F20008093F000CD2BCF70C093E900FF91EF910B
:103F3000DF91CF91BF91AF919F918F917F916F91C1
:103F40005F914F913F912F910F900FBE0F901F9057
:103F500018951F93CF93DF93CDB7DEB7AA970FB60F
:103F6000F894DEBF0FBECDBFE6E8F2E08091F1002D
:103F7000819322E0EE38F207C9F70E94051B809179
:103F8000E80083FF2EC18091860290918702492F1D
:103F900050E04A30510508F024C1FA01EC58FF4FB7
:103FA0000C943921803821F0823809F01AC108C0F8
:103FB0008091820290918302992389F082600FC0E0
:103FC00080918A028F70873008F00BC18093E900DE
:103FD0008091EB0085FB882780F91092E900909191
:103FE000E800977F9093E8008093F1001092F10031
:103FF000D1C0282F2D7F09F0F4C0882319F082301A
:1040000061F0EFC080918802813009F0EAC09330FE
:1040100009F080E0809383022EC080918802811194
:104020002AC080918A028F702FEF280F263008F067
:10403000D8C08093E9002091EB0020FF1CC0933092
:1040400021F48091EB00806214C09091EB009061AC
:104050009093EB0021E030E0A90102C0440F551F0E
:104060008A95E2F74093EA001092EA008091EB0013
:1040700088608093EB001092E9008091E800877FD0
:104080008093E8000E94C61DACC08111AAC01091A7
:1040900088021F778091E3008078812B8093E30072
:1040A0008091E800877F8093E8000E94C61D809180
:1040B000E80080FFFCCF8091E30080688093E300FC
:1040C000111102C082E001C083E08093850289C0A3
:1040D0008058823008F085C08091880290918902D2
:1040E0008C3D53E0950779F583E08A838AE28983E2
:1040F0004FB7F894DE01139620E03EE051E2E32F43
:10410000F0E050935700E49120FF03C0E295EF7078
:104110003F5FEF708E2F90E0EA3010F0C79601C03D
:10412000C0968D939D932F5F243149F74FBF8091A7
:10413000E800877F8093E8006AE270E0CE01019694
:104140000E94D21C16C060918A0270918B02AE014F
:104150004F5F5F4F0E94011CBC01892B09F441C0D5
:104160009091E800977F9093E80089819A810E945E
:10417000301D8091E8008B778093E80032C0803852
:1041800081F58091E800877F8093E800809181022B
:104190008093F1008091E8008E7772CF811121C069
:1041A000809188029091890299270297D4F4809196
:1041B000E800877F8093E8008091880280938102E5
:1041C0000E94C61D80918102811106C08091E3008A
:1041D00087FD02C081E001C084E0809385020E94D7
:1041E000FB1A8091E80083FF0AC08091E800877F76
:1041F0008093E8008091EB0080628093EB00AA96A8
:104200000FB6F894DEBF0FBECDBFDF91CF911F91E7
:1042100008950895CF93809185028823A1F0C091DD
:10422000E900CF709091EC00892F817090FD80E8BB
:10423000C82B1092E9008091E80083FD0E94A91F1D
:10424000CF70C093E900CF91089597FB072E16F425
:10425000009407D077FD09D00E943F2107FC05D0CC
:104260003EF4909581959F4F0895709561957F4F8D
:104270000895EE0FFF1F0590F491E02D0994AA1BFD
:10428000BB1B51E107C0AA1FBB1FA617B70710F041
:10429000A61BB70B881F991F5A95A9F78095909573
:1042A000BC01CD010895F999FECF92BD81BDF89A68
:1042B000992780B50895A8E1B0E042E050E00C9461
:1042C0008721262FF999FECF92BD81BDF89A0197DB
:1042D00000B4021639F01FBA20BD0FB6F894FA9A4E
:1042E000F99A0FBE08950396272F0E9462210E941B
:1042F0006121252F0E946221242F0C9462210196B6
:10430000272F0E9462210C946121DC01CB01FC016A
:10431000F999FECF06C0F2BDE1BDF89A319600B41E
:0E4320000D9241505040B8F70895F894FFCF29
:10432E0010022808641E140A321E281A9F1A741AC4
:10433E00701A5E1A01E200E900EA00B500B600B795
:10434E0000CD008301CC008A019201940121022349
:10435E000224022502260227022A02B300B4006FAD
:10436E0000700081828397C634359293F7313332D1
:10437E00369190946600FF0100010000FFFF0000DF
:10438E00010001FF00E200E900EA00B500B600B747
:10439E0000CD008301CC008A0192019401210223F9
:1043AE000224022502260227022A02B300B4006F5D
:0643BE0000700081828303
:00000001FF
